{"abi":[{"anonymous":false,"inputs":[{"indexed":true,"internalType":"address","name":"previousOwner","type":"address"},{"indexed":true,"internalType":"address","name":"newOwner","type":"address"}],"name":"OwnershipTransferred","type":"event"},{"inputs":[],"name":"FEE","outputs":[{"internalType":"uint256","name":"","type":"uint256"}],"stateMutability":"view","type":"function"},{"inputs":[],"name":"getLpTokenPrice","outputs":[{"internalType":"uint256","name":"","type":"uint256"},{"internalType":"uint256","name":"","type":"uint256"}],"stateMutability":"view","type":"function"},{"inputs":[{"internalType":"uint256","name":"amountLinkToSupply","type":"uint256"},{"internalType":"uint256","name":"amountUsdcToSupply","type":"uint256"}],"name":"initiatePool","outputs":[],"stateMutability":"nonpayable","type":"function"},{"inputs":[],"name":"owner","outputs":[{"internalType":"address","name":"","type":"address"}],"stateMutability":"view","type":"function"},{"inputs":[],"name":"renounceOwnership","outputs":[],"stateMutability":"nonpayable","type":"function"},{"inputs":[{"internalType":"uint256","name":"amountLpTokens","type":"uint256"}],"name":"supply","outputs":[],"stateMutability":"nonpayable","type":"function"},{"inputs":[{"internalType":"uint256","name":"quantitySoldToken","type":"uint256"},{"internalType":"uint256","name":"minAmountPurchasedToken","type":"uint256"},{"internalType":"enum SimpleSwap.Token","name":"tokenForSale","type":"uint8"}],"name":"swap","outputs":[],"stateMutability":"nonpayable","type":"function"},{"inputs":[],"name":"totalAvailableLink","outputs":[{"internalType":"uint256","name":"","type":"uint256"}],"stateMutability":"view","type":"function"},{"inputs":[],"name":"totalAvailableUSDC","outputs":[{"internalType":"uint256","name":"","type":"uint256"}],"stateMutability":"view","type":"function"},{"inputs":[],"name":"totalLpTokens","outputs":[{"internalType":"uint256","name":"","type":"uint256"}],"stateMutability":"view","type":"function"},{"inputs":[{"internalType":"address","name":"newOwner","type":"address"}],"name":"transferOwnership","outputs":[],"stateMutability":"nonpayable","type":"function"},{"inputs":[{"internalType":"uint256","name":"amountLpTokens","type":"uint256"}],"name":"withdraw","outputs":[],"stateMutability":"nonpayable","type":"function"}],"bytecode":"6080604052600180546001600160a01b031990811673a36085f69e2889c224210f603d836748e7dc0088179091556002805490911673b7a4f3e9097c08da09517b5ab877f7a917224ede179055600060038190556004819055600555610bb86006556007805460ff1916905534801561007757600080fd5b5061008861008361008d565b610091565b6100e1565b3390565b600080546001600160a01b038381166001600160a01b0319831681178455604051919092169283917f8be0079c531659141344cd1fd0a4f28419497f9722a3daafe3b4186f6b6457e09190a35050565b6124e8806100f06000396000f3fe60806040523480156200001157600080fd5b5060043610620000c45760003560e01c8063868c844f116200007b578063868c844f14620001565780638da5cb5b1462000160578063b2e411c21462000179578063c57981b51462000183578063ce49ea9a146200018d578063f2fde38b14620001a457620000c4565b80632e1a7d4d14620000c95780633540302314620000e25780635c36d25e14620000f9578063618e552c14620001105780636f5cdb6c1462000132578063715018a6146200014c575b600080fd5b620000e0620000da3660046200103d565b620001bb565b005b620000e0620000f33660046200103d565b6200051e565b620000e06200010a36600462001091565b620007d0565b6200011a62000a65565b6040516200012991906200145c565b60405180910390f35b6200013c62000a6b565b6040516200012992919062001465565b620000e062000ab8565b6200011a62000b0c565b6200016a62000b12565b604051620001299190620010ce565b6200011a62000b21565b6200011a62000b27565b620000e06200019e3660046200106f565b62000b2d565b620000e0620001b536600462000ff2565b62000dea565b60075460ff16620001e95760405162461bcd60e51b8152600401620001e090620012ab565b60405180910390fd5b60075460ff166200020e5760405162461bcd60e51b8152600401620001e090620012ab565b60008111620002315760405162461bcd60e51b8152600401620001e0906200134d565b6007546040516370a0823160e01b8152829161010090046001600160a01b0316906370a082319062000268903390600401620010ce565b60206040518083038186803b1580156200028157600080fd5b505afa15801562000296573d6000803e3d6000fd5b505050506040513d601f19601f82011682018060405250810190620002bc919062001056565b1015620002dd5760405162461bcd60e51b8152600401620001e09062001276565b600080620002ea62000a6b565b909250905060006200030c620f424062000305858762000e67565b9062000e7c565b9050600062000324620f424062000305858862000e67565b60035490915062000336908362000e8a565b60035560045462000348908262000e8a565b6004556005546200035a908662000e8a565b600555600754604051630852cd8d60e31b81526101009091046001600160a01b0316906342966c6890620003939088906004016200145c565b600060405180830381600087803b158015620003ae57600080fd5b505af1158015620003c3573d6000803e3d6000fd5b505060015460025460405163a9059cbb60e01b81526001600160a01b03928316945091169150829063a9059cbb9062000403903390889060040162001106565b602060405180830381600087803b1580156200041e57600080fd5b505af115801562000433573d6000803e3d6000fd5b505050506040513d601f19601f820116820180604052508101906200045991906200101b565b6200047457634e487b7160e01b600052600160045260246000fd5b60405163a9059cbb60e01b81526001600160a01b0382169063a9059cbb90620004a4903390879060040162001106565b602060405180830381600087803b158015620004bf57600080fd5b505af1158015620004d4573d6000803e3d6000fd5b505050506040513d601f19601f82011682018060405250810190620004fa91906200101b565b6200051557634e487b7160e01b600052600160045260246000fd5b50505050505050565b60075460ff16620005435760405162461bcd60e51b8152600401620001e090620012ab565b60075460ff16620005685760405162461bcd60e51b8152600401620001e090620012ab565b600081116200058b5760405162461bcd60e51b8152600401620001e090620011b9565b6000806200059862000a6b565b6001546002549294509092506001600160a01b0390811691166000620005c7620f424062000305878962000e67565b90506000620005df620f424062000305878a62000e67565b600354909150620005f1908362000e98565b60035560045462000603908262000e98565b60045560055462000615908862000e98565b60055560075460405163140e25ad60e31b81526101009091046001600160a01b03169063a0712d68906200064e908a906004016200145c565b600060405180830381600087803b1580156200066957600080fd5b505af11580156200067e573d6000803e3d6000fd5b50506040516323b872dd60e01b81526001600160a01b03871692506323b872dd9150620006b490339030908790600401620010e2565b602060405180830381600087803b158015620006cf57600080fd5b505af1158015620006e4573d6000803e3d6000fd5b505050506040513d601f19601f820116820180604052508101906200070a91906200101b565b620007295760405162461bcd60e51b8152600401620001e0906200123f565b6040516323b872dd60e01b81526001600160a01b038416906323b872dd906200075b90339030908690600401620010e2565b602060405180830381600087803b1580156200077657600080fd5b505af11580156200078b573d6000803e3d6000fd5b505050506040513d601f19601f82011682018060405250810190620007b191906200101b565b620005155760405162461bcd60e51b8152600401620001e09062001208565b60075460ff16620007f55760405162461bcd60e51b8152600401620001e090620012ab565b60075460ff166200081a5760405162461bcd60e51b8152600401620001e090620012ab565b600083116200083d5760405162461bcd60e51b8152600401620001e0906200111f565b60006200084b848362000ea6565b905082811015620008705760405162461bcd60e51b8152600401620001e09062001407565b600080808460018111156200089557634e487b7160e01b600052602160045260246000fd5b1415620008db57600354620008ab908762000e98565b600355600454620008bd908462000e8a565b60045550506001546002546001600160a01b03918216911662000915565b600354620008ea908462000e8a565b600355600454620008fc908762000e98565b60045550506002546001546001600160a01b0391821691165b60405163a9059cbb60e01b81526001600160a01b0382169063a9059cbb9062000945903390879060040162001106565b602060405180830381600087803b1580156200096057600080fd5b505af115801562000975573d6000803e3d6000fd5b505050506040513d601f19601f820116820180604052508101906200099b91906200101b565b620009b657634e487b7160e01b600052600160045260246000fd5b6040516323b872dd60e01b81526001600160a01b038316906323b872dd90620009e890339030908b90600401620010e2565b602060405180830381600087803b15801562000a0357600080fd5b505af115801562000a18573d6000803e3d6000fd5b505050506040513d601f19601f8201168201806040525081019062000a3e91906200101b565b62000a5d5760405162461bcd60e51b8152600401620001e090620012f0565b505050505050565b60035481565b60008062000a8f60055462000305620f424060035462000e6790919063ffffffff16565b62000ab060055462000305620f424060045462000e6790919063ffffffff16565b915091509091565b62000ac262000f90565b6001600160a01b031662000ad562000b12565b6001600160a01b03161462000afe5760405162461bcd60e51b8152600401620001e0906200139d565b62000b0a600062000f94565b565b60055481565b6000546001600160a01b031690565b60045481565b60065481565b62000b3762000f90565b6001600160a01b031662000b4a62000b12565b6001600160a01b03161462000b735760405162461bcd60e51b8152600401620001e0906200139d565b60075460ff161562000b995760405162461bcd60e51b8152600401620001e090620013d2565b3060405162000ba89062000fe4565b62000bb49190620010ce565b604051809103906000f08015801562000bd1573d6000803e3d6000fd5b5060078054610100600160a81b0319166101006001600160a01b03938416021790556001546002546040516323b872dd60e01b815291831692169082906323b872dd9062000c2890339030908990600401620010e2565b602060405180830381600087803b15801562000c4357600080fd5b505af115801562000c58573d6000803e3d6000fd5b505050506040513d601f19601f8201168201806040525081019062000c7e91906200101b565b62000c9d5760405162461bcd60e51b8152600401620001e0906200123f565b6040516323b872dd60e01b81526001600160a01b038216906323b872dd9062000ccf90339030908890600401620010e2565b602060405180830381600087803b15801562000cea57600080fd5b505af115801562000cff573d6000803e3d6000fd5b505050506040513d601f19601f8201168201806040525081019062000d2591906200101b565b62000d445760405162461bcd60e51b8152600401620001e09062001208565b60035462000d53908562000e98565b60035560045462000d65908462000e98565b6004908155600584905560075460405163140e25ad60e31b81526101009091046001600160a01b03169163a0712d689162000da3918791016200145c565b600060405180830381600087803b15801562000dbe57600080fd5b505af115801562000dd3573d6000803e3d6000fd5b50506007805460ff19166001179055505050505050565b62000df462000f90565b6001600160a01b031662000e0762000b12565b6001600160a01b03161462000e305760405162461bcd60e51b8152600401620001e0906200139d565b6001600160a01b03811662000e595760405162461bcd60e51b8152600401620001e09062001173565b62000e648162000f94565b50565b600062000e758284620014af565b9392505050565b600062000e7582846200148e565b600062000e758284620014d1565b600062000e75828462001473565b6000808083600181111562000ecb57634e487b7160e01b600052602160045260246000fd5b1462000eda5760035462000ede565b6004545b905060008084600181111562000f0457634e487b7160e01b600052602160045260246000fd5b1462000f135760045462000f17565b6003545b9050600062000f3460035460045462000e6790919063ffffffff16565b9050600062000f5c62000f5462000f4c858a62000e98565b849062000e7c565b859062000e8a565b905062000f85620f424062000305600654620f424062000f7d9190620014d1565b849062000e67565b979650505050505050565b3390565b600080546001600160a01b038381166001600160a01b0319831681178455604051919092169283917f8be0079c531659141344cd1fd0a4f28419497f9722a3daafe3b4186f6b6457e09190a35050565b610fb1806200150283390190565b60006020828403121562001004578081fd5b81356001600160a01b038116811462000e75578182fd5b6000602082840312156200102d578081fd5b8151801515811462000e75578182fd5b6000602082840312156200104f578081fd5b5035919050565b60006020828403121562001068578081fd5b5051919050565b6000806040838503121562001082578081fd5b50508035926020909101359150565b600080600060608486031215620010a6578081fd5b8335925060208401359150604084013560028110620010c3578182fd5b809150509250925092565b6001600160a01b0391909116815260200190565b6001600160a01b039384168152919092166020820152604081019190915260600190565b6001600160a01b03929092168252602082015260400190565b60208082526034908201527f54686520616d6f756e7420746f2073656c6c2073686f756c642062652073747260408201527334b1ba363c903134b3b3b2b9103a3430b710181760611b606082015260800190565b60208082526026908201527f4f776e61626c653a206e6577206f776e657220697320746865207a65726f206160408201526564647265737360d01b606082015260800190565b6020808252602f908201527f54686520616d6f756e74206f6620737570706c696564206c7020746f6b656e7360408201526e1039b437bab632103132901f10181760891b606082015260800190565b60208082526018908201527f5553444320616d6f756e7420756e617661696c61626c652e0000000000000000604082015260600190565b60208082526018908201527f4c696e6b20616d6f756e7420756e617661696c61626c652e0000000000000000604082015260600190565b6020808252818101527f596f7520646f6e2774206861766520656e6f756768204c5020746f6b656e732e604082015260600190565b60208082526025908201527f54686520706f6f6c2073686f756c6420626520696e697469616c697a6564206660408201526434b939ba1760d91b606082015260800190565b60208082526038908201527f5472616e73666572206f662074686520616d6f756e74206f6620746f6b656e2060408201527f796f752077616e7420746f2073656c6c206661696c65642e0000000000000000606082015260800190565b60208082526030908201527f54686520616d6f756e74206f6620726571756573746564206c7020746f6b656e60408201526f399039b437bab632103132901f10181760811b606082015260800190565b6020808252818101527f4f776e61626c653a2063616c6c6572206973206e6f7420746865206f776e6572604082015260600190565b6020808252818101527f54686520706f6f6c2077617320616c726561647920696e697469616c697a6564604082015260600190565b60208082526035908201527f54686520616d6f756e74206f662070757263686173656420746f6b656e206973604082015274103637bbb2b9103a3430b7103932b8bab4b932b21760591b606082015260800190565b90815260200190565b918252602082015260400190565b60008219821115620014895762001489620014eb565b500190565b600082620014aa57634e487b7160e01b81526012600452602481fd5b500490565b6000816000190483118215151615620014cc57620014cc620014eb565b500290565b600082821015620014e657620014e6620014eb565b500390565b634e487b7160e01b600052601160045260246000fdfe60806040523480156200001157600080fd5b5060405162000fb138038062000fb1833981016040819052620000349162000174565b604080518082018252600e81526d04c702053696d706c6520537761760941b60208083019182528351808501909452600c84526b04c7053696d706c65537761760a41b9084015281519192916200008e91600391620000ce565b508051620000a4906004906020840190620000ce565b5050600580546001600160a01b0319166001600160a01b03939093169290921790915550620001e1565b828054620000dc90620001a4565b90600052602060002090601f0160209004810192826200010057600085556200014b565b82601f106200011b57805160ff19168380011785556200014b565b828001600101855582156200014b579182015b828111156200014b5782518255916020019190600101906200012e565b50620001599291506200015d565b5090565b5b808211156200015957600081556001016200015e565b60006020828403121562000186578081fd5b81516001600160a01b03811681146200019d578182fd5b9392505050565b600281046001821680620001b957607f821691505b60208210811415620001db57634e487b7160e01b600052602260045260246000fd5b50919050565b610dc080620001f16000396000f3fe608060405234801561001057600080fd5b50600436106100ea5760003560e01c806370a082311161008c578063a0712d6811610066578063a0712d68146101c0578063a457c2d7146101d3578063a9059cbb146101e6578063dd62ed3e146101f9576100ea565b806370a082311461019257806379cc6790146101a557806395d89b41146101b8576100ea565b806323b872dd116100c857806323b872dd14610142578063313ce56714610155578063395093511461016a57806342966c681461017d576100ea565b806306fdde03146100ef578063095ea7b31461010d57806318160ddd1461012d575b600080fd5b6100f761020c565b60405161010491906109c1565b60405180910390f35b61012061011b366004610975565b61029e565b60405161010491906109b6565b6101356102bb565b6040516101049190610cf3565b61012061015036600461093a565b6102c1565b61015d61035a565b6040516101049190610cfc565b610120610178366004610975565b61035f565b61019061018b36600461099e565b6103b3565b005b6101356101a03660046108e7565b6103d7565b6101906101b3366004610975565b6103f6565b6100f7610449565b6101906101ce36600461099e565b610458565b6101206101e1366004610975565b610479565b6101206101f4366004610975565b6104f2565b610135610207366004610908565b610506565b60606003805461021b90610d39565b80601f016020809104026020016040519081016040528092919081815260200182805461024790610d39565b80156102945780601f1061026957610100808354040283529160200191610294565b820191906000526020600020905b81548152906001019060200180831161027757829003601f168201915b5050505050905090565b60006102b26102ab610531565b8484610535565b50600192915050565b60025490565b60006102ce8484846105e9565b6001600160a01b0384166000908152600160205260408120816102ef610531565b6001600160a01b03166001600160a01b031681526020019081526020016000205490508281101561033b5760405162461bcd60e51b815260040161033290610b21565b60405180910390fd5b61034f85610347610531565b858403610535565b506001949350505050565b600690565b60006102b261036c610531565b84846001600061037a610531565b6001600160a01b03908116825260208083019390935260409182016000908120918b16815292529020546103ae9190610d0a565b610535565b6005546001600160a01b031633146103ca57600080fd5b6103d432826103f6565b50565b6001600160a01b0381166000908152602081905260409020545b919050565b600061040483610207610531565b9050818110156104265760405162461bcd60e51b815260040161033290610b69565b61043a83610432610531565b848403610535565b6104448383610713565b505050565b60606004805461021b90610d39565b6005546001600160a01b0316331461046f57600080fd5b6103d43282610804565b60008060016000610488610531565b6001600160a01b03908116825260208083019390935260409182016000908120918816815292529020549050828110156104d45760405162461bcd60e51b815260040161033290610c77565b6104e86104df610531565b85858403610535565b5060019392505050565b60006102b26104ff610531565b84846105e9565b6001600160a01b03918216600090815260016020908152604080832093909416825291909152205490565b3390565b6001600160a01b03831661055b5760405162461bcd60e51b815260040161033290610c33565b6001600160a01b0382166105815760405162461bcd60e51b815260040161033290610a99565b6001600160a01b0380841660008181526001602090815260408083209487168084529490915290819020849055517f8c5be1e5ebec7d5bd14f71427d1e84f3dd0314c0f7b2291e5b200ac8c7c3b925906105dc908590610cf3565b60405180910390a3505050565b6001600160a01b03831661060f5760405162461bcd60e51b815260040161033290610bee565b6001600160a01b0382166106355760405162461bcd60e51b815260040161033290610a14565b610640838383610444565b6001600160a01b038316600090815260208190526040902054818110156106795760405162461bcd60e51b815260040161033290610adb565b6001600160a01b038085166000908152602081905260408082208585039055918516815290812080548492906106b0908490610d0a565b92505081905550826001600160a01b0316846001600160a01b03167fddf252ad1be2c89b69c2b068fc378daa952ba7f163c4a11628f55a4df523b3ef846040516106fa9190610cf3565b60405180910390a361070d848484610444565b50505050565b6001600160a01b0382166107395760405162461bcd60e51b815260040161033290610bad565b61074582600083610444565b6001600160a01b0382166000908152602081905260409020548181101561077e5760405162461bcd60e51b815260040161033290610a57565b6001600160a01b03831660009081526020819052604081208383039055600280548492906107ad908490610d22565b90915550506040516000906001600160a01b038516907fddf252ad1be2c89b69c2b068fc378daa952ba7f163c4a11628f55a4df523b3ef906107f0908690610cf3565b60405180910390a361044483600084610444565b6001600160a01b03821661082a5760405162461bcd60e51b815260040161033290610cbc565b61083660008383610444565b80600260008282546108489190610d0a565b90915550506001600160a01b03821660009081526020819052604081208054839290610875908490610d0a565b90915550506040516001600160a01b038316906000907fddf252ad1be2c89b69c2b068fc378daa952ba7f163c4a11628f55a4df523b3ef906108b8908590610cf3565b60405180910390a36108cc60008383610444565b5050565b80356001600160a01b03811681146103f157600080fd5b6000602082840312156108f8578081fd5b610901826108d0565b9392505050565b6000806040838503121561091a578081fd5b610923836108d0565b9150610931602084016108d0565b90509250929050565b60008060006060848603121561094e578081fd5b610957846108d0565b9250610965602085016108d0565b9150604084013590509250925092565b60008060408385031215610987578182fd5b610990836108d0565b946020939093013593505050565b6000602082840312156109af578081fd5b5035919050565b901515815260200190565b6000602080835283518082850152825b818110156109ed578581018301518582016040015282016109d1565b818111156109fe5783604083870101525b50601f01601f1916929092016040019392505050565b60208082526023908201527f45524332303a207472616e7366657220746f20746865207a65726f206164647260408201526265737360e81b606082015260800190565b60208082526022908201527f45524332303a206275726e20616d6f756e7420657863656564732062616c616e604082015261636560f01b606082015260800190565b60208082526022908201527f45524332303a20617070726f766520746f20746865207a65726f206164647265604082015261737360f01b606082015260800190565b60208082526026908201527f45524332303a207472616e7366657220616d6f756e7420657863656564732062604082015265616c616e636560d01b606082015260800190565b60208082526028908201527f45524332303a207472616e7366657220616d6f756e74206578636565647320616040820152676c6c6f77616e636560c01b606082015260800190565b60208082526024908201527f45524332303a206275726e20616d6f756e74206578636565647320616c6c6f77604082015263616e636560e01b606082015260800190565b60208082526021908201527f45524332303a206275726e2066726f6d20746865207a65726f206164647265736040820152607360f81b606082015260800190565b60208082526025908201527f45524332303a207472616e736665722066726f6d20746865207a65726f206164604082015264647265737360d81b606082015260800190565b60208082526024908201527f45524332303a20617070726f76652066726f6d20746865207a65726f206164646040820152637265737360e01b606082015260800190565b60208082526025908201527f45524332303a2064656372656173656420616c6c6f77616e63652062656c6f77604082015264207a65726f60d81b606082015260800190565b6020808252601f908201527f45524332303a206d696e7420746f20746865207a65726f206164647265737300604082015260600190565b90815260200190565b60ff91909116815260200190565b60008219821115610d1d57610d1d610d74565b500190565b600082821015610d3457610d34610d74565b500390565b600281046001821680610d4d57607f821691505b60208210811415610d6e57634e487b7160e01b600052602260045260246000fd5b50919050565b634e487b7160e01b600052601160045260246000fdfea2646970667358221220d73f2d686fda5aed987997fb8ea043a350b9b548d3dccaad761b346a895c82c064736f6c63430008000033a26469706673582212206a13eafa35ff36f18b0e320752590cd6fdf3eb4084db221f3b1986c28eb362ca64736f6c63430008000033","bytecodeSha1":"1350847a2dc0f91a820484779e4a9fa5b9f997e9","compiler":{"evm_version":"istanbul","optimizer":{"enabled":true,"runs":200},"version":"0.8.0+commit.c7dfd78e"},"contractName":"SimpleSwap","language":"Solidity","natspec":{"kind":"dev","methods":{"owner()":{"details":"Returns the address of the current owner."},"renounceOwnership()":{"details":"Leaves the contract without owner. It will not be possible to call `onlyOwner` functions anymore. Can only be called by the current owner. NOTE: Renouncing ownership will leave the contract without an owner, thereby removing any functionality that is only available to the owner."},"transferOwnership(address)":{"details":"Transfers ownership of the contract to a new account (`newOwner`). Can only be called by the current owner."}},"version":1},"opcodes":"PUSH1 0x80 PUSH1 0x40 MSTORE CALLVALUE DUP1 ISZERO PUSH3 0x11 JUMPI PUSH1 0x0 DUP1 REVERT JUMPDEST POP PUSH1 0x4 CALLDATASIZE LT PUSH3 0xC4 JUMPI PUSH1 0x0 CALLDATALOAD PUSH1 0xE0 SHR DUP1 PUSH4 0x868C844F GT PUSH3 0x7B JUMPI DUP1 PUSH4 0x868C844F EQ PUSH3 0x156 JUMPI DUP1 PUSH4 0x8DA5CB5B EQ PUSH3 0x160 JUMPI DUP1 PUSH4 0xB2E411C2 EQ PUSH3 0x179 JUMPI DUP1 PUSH4 0xC57981B5 EQ PUSH3 0x183 JUMPI DUP1 PUSH4 0xCE49EA9A EQ PUSH3 0x18D JUMPI DUP1 PUSH4 0xF2FDE38B EQ PUSH3 0x1A4 JUMPI PUSH3 0xC4 JUMP JUMPDEST DUP1 PUSH4 0x2E1A7D4D EQ PUSH3 0xC9 JUMPI DUP1 PUSH4 0x35403023 EQ PUSH3 0xE2 JUMPI DUP1 PUSH4 0x5C36D25E EQ PUSH3 0xF9 JUMPI DUP1 PUSH4 0x618E552C EQ PUSH3 0x110 JUMPI DUP1 PUSH4 0x6F5CDB6C EQ PUSH3 0x132 JUMPI DUP1 PUSH4 0x715018A6 EQ PUSH3 0x14C JUMPI JUMPDEST PUSH1 0x0 DUP1 REVERT JUMPDEST PUSH3 0xE0 PUSH3 0xDA CALLDATASIZE PUSH1 0x4 PUSH3 0x103D JUMP JUMPDEST PUSH3 0x1BB JUMP JUMPDEST STOP JUMPDEST PUSH3 0xE0 PUSH3 0xF3 CALLDATASIZE PUSH1 0x4 PUSH3 0x103D JUMP JUMPDEST PUSH3 0x51E JUMP JUMPDEST PUSH3 0xE0 PUSH3 0x10A CALLDATASIZE PUSH1 0x4 PUSH3 0x1091 JUMP JUMPDEST PUSH3 0x7D0 JUMP JUMPDEST PUSH3 0x11A PUSH3 0xA65 JUMP JUMPDEST PUSH1 0x40 MLOAD PUSH3 0x129 SWAP2 SWAP1 PUSH3 0x145C JUMP JUMPDEST PUSH1 0x40 MLOAD DUP1 SWAP2 SUB SWAP1 RETURN JUMPDEST PUSH3 0x13C PUSH3 0xA6B JUMP JUMPDEST PUSH1 0x40 MLOAD PUSH3 0x129 SWAP3 SWAP2 SWAP1 PUSH3 0x1465 JUMP JUMPDEST PUSH3 0xE0 PUSH3 0xAB8 JUMP JUMPDEST PUSH3 0x11A PUSH3 0xB0C JUMP JUMPDEST PUSH3 0x16A PUSH3 0xB12 JUMP JUMPDEST PUSH1 0x40 MLOAD PUSH3 0x129 SWAP2 SWAP1 PUSH3 0x10CE JUMP JUMPDEST PUSH3 0x11A PUSH3 0xB21 JUMP JUMPDEST PUSH3 0x11A PUSH3 0xB27 JUMP JUMPDEST PUSH3 0xE0 PUSH3 0x19E CALLDATASIZE PUSH1 0x4 PUSH3 0x106F JUMP JUMPDEST PUSH3 0xB2D JUMP JUMPDEST PUSH3 0xE0 PUSH3 0x1B5 CALLDATASIZE PUSH1 0x4 PUSH3 0xFF2 JUMP JUMPDEST PUSH3 0xDEA JUMP JUMPDEST PUSH1 0x7 SLOAD PUSH1 0xFF AND PUSH3 0x1E9 JUMPI PUSH1 0x40 MLOAD PUSH3 0x461BCD PUSH1 0xE5 SHL DUP2 MSTORE PUSH1 0x4 ADD PUSH3 0x1E0 SWAP1 PUSH3 0x12AB JUMP JUMPDEST PUSH1 0x40 MLOAD DUP1 SWAP2 SUB SWAP1 REVERT JUMPDEST PUSH1 0x7 SLOAD PUSH1 0xFF AND PUSH3 0x20E JUMPI PUSH1 0x40 MLOAD PUSH3 0x461BCD PUSH1 0xE5 SHL DUP2 MSTORE PUSH1 0x4 ADD PUSH3 0x1E0 SWAP1 PUSH3 0x12AB JUMP JUMPDEST PUSH1 0x0 DUP2 GT PUSH3 0x231 JUMPI PUSH1 0x40 MLOAD PUSH3 0x461BCD PUSH1 0xE5 SHL DUP2 MSTORE PUSH1 0x4 ADD PUSH3 0x1E0 SWAP1 PUSH3 0x134D JUMP JUMPDEST PUSH1 0x7 SLOAD PUSH1 0x40 MLOAD PUSH4 0x70A08231 PUSH1 0xE0 SHL DUP2 MSTORE DUP3 SWAP2 PUSH2 0x100 SWAP1 DIV PUSH1 0x1 PUSH1 0x1 PUSH1 0xA0 SHL SUB AND SWAP1 PUSH4 0x70A08231 SWAP1 PUSH3 0x268 SWAP1 CALLER SWAP1 PUSH1 0x4 ADD PUSH3 0x10CE JUMP JUMPDEST PUSH1 0x20 PUSH1 0x40 MLOAD DUP1 DUP4 SUB DUP2 DUP7 DUP1 EXTCODESIZE ISZERO DUP1 ISZERO PUSH3 0x281 JUMPI PUSH1 0x0 DUP1 REVERT JUMPDEST POP GAS STATICCALL ISZERO DUP1 ISZERO PUSH3 0x296 JUMPI RETURNDATASIZE PUSH1 0x0 DUP1 RETURNDATACOPY RETURNDATASIZE PUSH1 0x0 REVERT JUMPDEST POP POP POP POP PUSH1 0x40 MLOAD RETURNDATASIZE PUSH1 0x1F NOT PUSH1 0x1F DUP3 ADD AND DUP3 ADD DUP1 PUSH1 0x40 MSTORE POP DUP2 ADD SWAP1 PUSH3 0x2BC SWAP2 SWAP1 PUSH3 0x1056 JUMP JUMPDEST LT ISZERO PUSH3 0x2DD JUMPI PUSH1 0x40 MLOAD PUSH3 0x461BCD PUSH1 0xE5 SHL DUP2 MSTORE PUSH1 0x4 ADD PUSH3 0x1E0 SWAP1 PUSH3 0x1276 JUMP JUMPDEST PUSH1 0x0 DUP1 PUSH3 0x2EA PUSH3 0xA6B JUMP JUMPDEST SWAP1 SWAP3 POP SWAP1 POP PUSH1 0x0 PUSH3 0x30C PUSH3 0xF4240 PUSH3 0x305 DUP6 DUP8 PUSH3 0xE67 JUMP JUMPDEST SWAP1 PUSH3 0xE7C JUMP JUMPDEST SWAP1 POP PUSH1 0x0 PUSH3 0x324 PUSH3 0xF4240 PUSH3 0x305 DUP6 DUP9 PUSH3 0xE67 JUMP JUMPDEST PUSH1 0x3 SLOAD SWAP1 SWAP2 POP PUSH3 0x336 SWAP1 DUP4 PUSH3 0xE8A JUMP JUMPDEST PUSH1 0x3 SSTORE PUSH1 0x4 SLOAD PUSH3 0x348 SWAP1 DUP3 PUSH3 0xE8A JUMP JUMPDEST PUSH1 0x4 SSTORE PUSH1 0x5 SLOAD PUSH3 0x35A SWAP1 DUP7 PUSH3 0xE8A JUMP JUMPDEST PUSH1 0x5 SSTORE PUSH1 0x7 SLOAD PUSH1 0x40 MLOAD PUSH4 0x852CD8D PUSH1 0xE3 SHL DUP2 MSTORE PUSH2 0x100 SWAP1 SWAP2 DIV PUSH1 0x1 PUSH1 0x1 PUSH1 0xA0 SHL SUB AND SWAP1 PUSH4 0x42966C68 SWAP1 PUSH3 0x393 SWAP1 DUP9 SWAP1 PUSH1 0x4 ADD PUSH3 0x145C JUMP JUMPDEST PUSH1 0x0 PUSH1 0x40 MLOAD DUP1 DUP4 SUB DUP2 PUSH1 0x0 DUP8 DUP1 EXTCODESIZE ISZERO DUP1 ISZERO PUSH3 0x3AE JUMPI PUSH1 0x0 DUP1 REVERT JUMPDEST POP GAS CALL ISZERO DUP1 ISZERO PUSH3 0x3C3 JUMPI RETURNDATASIZE PUSH1 0x0 DUP1 RETURNDATACOPY RETURNDATASIZE PUSH1 0x0 REVERT JUMPDEST POP POP PUSH1 0x1 SLOAD PUSH1 0x2 SLOAD PUSH1 0x40 MLOAD PUSH4 0xA9059CBB PUSH1 0xE0 SHL DUP2 MSTORE PUSH1 0x1 PUSH1 0x1 PUSH1 0xA0 SHL SUB SWAP3 DUP4 AND SWAP5 POP SWAP2 AND SWAP2 POP DUP3 SWAP1 PUSH4 0xA9059CBB SWAP1 PUSH3 0x403 SWAP1 CALLER SWAP1 DUP9 SWAP1 PUSH1 0x4 ADD PUSH3 0x1106 JUMP JUMPDEST PUSH1 0x20 PUSH1 0x40 MLOAD DUP1 DUP4 SUB DUP2 PUSH1 0x0 DUP8 DUP1 EXTCODESIZE ISZERO DUP1 ISZERO PUSH3 0x41E JUMPI PUSH1 0x0 DUP1 REVERT JUMPDEST POP GAS CALL ISZERO DUP1 ISZERO PUSH3 0x433 JUMPI RETURNDATASIZE PUSH1 0x0 DUP1 RETURNDATACOPY RETURNDATASIZE PUSH1 0x0 REVERT JUMPDEST POP POP POP POP PUSH1 0x40 MLOAD RETURNDATASIZE PUSH1 0x1F NOT PUSH1 0x1F DUP3 ADD AND DUP3 ADD DUP1 PUSH1 0x40 MSTORE POP DUP2 ADD SWAP1 PUSH3 0x459 SWAP2 SWAP1 PUSH3 0x101B JUMP JUMPDEST PUSH3 0x474 JUMPI PUSH4 0x4E487B71 PUSH1 0xE0 SHL PUSH1 0x0 MSTORE PUSH1 0x1 PUSH1 0x4 MSTORE PUSH1 0x24 PUSH1 0x0 REVERT JUMPDEST PUSH1 0x40 MLOAD PUSH4 0xA9059CBB PUSH1 0xE0 SHL DUP2 MSTORE PUSH1 0x1 PUSH1 0x1 PUSH1 0xA0 SHL SUB DUP3 AND SWAP1 PUSH4 0xA9059CBB SWAP1 PUSH3 0x4A4 SWAP1 CALLER SWAP1 DUP8 SWAP1 PUSH1 0x4 ADD PUSH3 0x1106 JUMP JUMPDEST PUSH1 0x20 PUSH1 0x40 MLOAD DUP1 DUP4 SUB DUP2 PUSH1 0x0 DUP8 DUP1 EXTCODESIZE ISZERO DUP1 ISZERO PUSH3 0x4BF JUMPI PUSH1 0x0 DUP1 REVERT JUMPDEST POP GAS CALL ISZERO DUP1 ISZERO PUSH3 0x4D4 JUMPI RETURNDATASIZE PUSH1 0x0 DUP1 RETURNDATACOPY RETURNDATASIZE PUSH1 0x0 REVERT JUMPDEST POP POP POP POP PUSH1 0x40 MLOAD RETURNDATASIZE PUSH1 0x1F NOT PUSH1 0x1F DUP3 ADD AND DUP3 ADD DUP1 PUSH1 0x40 MSTORE POP DUP2 ADD SWAP1 PUSH3 0x4FA SWAP2 SWAP1 PUSH3 0x101B JUMP JUMPDEST PUSH3 0x515 JUMPI PUSH4 0x4E487B71 PUSH1 0xE0 SHL PUSH1 0x0 MSTORE PUSH1 0x1 PUSH1 0x4 MSTORE PUSH1 0x24 PUSH1 0x0 REVERT JUMPDEST POP POP POP POP POP POP POP JUMP JUMPDEST PUSH1 0x7 SLOAD PUSH1 0xFF AND PUSH3 0x543 JUMPI PUSH1 0x40 MLOAD PUSH3 0x461BCD PUSH1 0xE5 SHL DUP2 MSTORE PUSH1 0x4 ADD PUSH3 0x1E0 SWAP1 PUSH3 0x12AB JUMP JUMPDEST PUSH1 0x7 SLOAD PUSH1 0xFF AND PUSH3 0x568 JUMPI PUSH1 0x40 MLOAD PUSH3 0x461BCD PUSH1 0xE5 SHL DUP2 MSTORE PUSH1 0x4 ADD PUSH3 0x1E0 SWAP1 PUSH3 0x12AB JUMP JUMPDEST PUSH1 0x0 DUP2 GT PUSH3 0x58B JUMPI PUSH1 0x40 MLOAD PUSH3 0x461BCD PUSH1 0xE5 SHL DUP2 MSTORE PUSH1 0x4 ADD PUSH3 0x1E0 SWAP1 PUSH3 0x11B9 JUMP JUMPDEST PUSH1 0x0 DUP1 PUSH3 0x598 PUSH3 0xA6B JUMP JUMPDEST PUSH1 0x1 SLOAD PUSH1 0x2 SLOAD SWAP3 SWAP5 POP SWAP1 SWAP3 POP PUSH1 0x1 PUSH1 0x1 PUSH1 0xA0 SHL SUB SWAP1 DUP2 AND SWAP2 AND PUSH1 0x0 PUSH3 0x5C7 PUSH3 0xF4240 PUSH3 0x305 DUP8 DUP10 PUSH3 0xE67 JUMP JUMPDEST SWAP1 POP PUSH1 0x0 PUSH3 0x5DF PUSH3 0xF4240 PUSH3 0x305 DUP8 DUP11 PUSH3 0xE67 JUMP JUMPDEST PUSH1 0x3 SLOAD SWAP1 SWAP2 POP PUSH3 0x5F1 SWAP1 DUP4 PUSH3 0xE98 JUMP JUMPDEST PUSH1 0x3 SSTORE PUSH1 0x4 SLOAD PUSH3 0x603 SWAP1 DUP3 PUSH3 0xE98 JUMP JUMPDEST PUSH1 0x4 SSTORE PUSH1 0x5 SLOAD PUSH3 0x615 SWAP1 DUP9 PUSH3 0xE98 JUMP JUMPDEST PUSH1 0x5 SSTORE PUSH1 0x7 SLOAD PUSH1 0x40 MLOAD PUSH4 0x140E25AD PUSH1 0xE3 SHL DUP2 MSTORE PUSH2 0x100 SWAP1 SWAP2 DIV PUSH1 0x1 PUSH1 0x1 PUSH1 0xA0 SHL SUB AND SWAP1 PUSH4 0xA0712D68 SWAP1 PUSH3 0x64E SWAP1 DUP11 SWAP1 PUSH1 0x4 ADD PUSH3 0x145C JUMP JUMPDEST PUSH1 0x0 PUSH1 0x40 MLOAD DUP1 DUP4 SUB DUP2 PUSH1 0x0 DUP8 DUP1 EXTCODESIZE ISZERO DUP1 ISZERO PUSH3 0x669 JUMPI PUSH1 0x0 DUP1 REVERT JUMPDEST POP GAS CALL ISZERO DUP1 ISZERO PUSH3 0x67E JUMPI RETURNDATASIZE PUSH1 0x0 DUP1 RETURNDATACOPY RETURNDATASIZE PUSH1 0x0 REVERT JUMPDEST POP POP PUSH1 0x40 MLOAD PUSH4 0x23B872DD PUSH1 0xE0 SHL DUP2 MSTORE PUSH1 0x1 PUSH1 0x1 PUSH1 0xA0 SHL SUB DUP8 AND SWAP3 POP PUSH4 0x23B872DD SWAP2 POP PUSH3 0x6B4 SWAP1 CALLER SWAP1 ADDRESS SWAP1 DUP8 SWAP1 PUSH1 0x4 ADD PUSH3 0x10E2 JUMP JUMPDEST PUSH1 0x20 PUSH1 0x40 MLOAD DUP1 DUP4 SUB DUP2 PUSH1 0x0 DUP8 DUP1 EXTCODESIZE ISZERO DUP1 ISZERO PUSH3 0x6CF JUMPI PUSH1 0x0 DUP1 REVERT JUMPDEST POP GAS CALL ISZERO DUP1 ISZERO PUSH3 0x6E4 JUMPI RETURNDATASIZE PUSH1 0x0 DUP1 RETURNDATACOPY RETURNDATASIZE PUSH1 0x0 REVERT JUMPDEST POP POP POP POP PUSH1 0x40 MLOAD RETURNDATASIZE PUSH1 0x1F NOT PUSH1 0x1F DUP3 ADD AND DUP3 ADD DUP1 PUSH1 0x40 MSTORE POP DUP2 ADD SWAP1 PUSH3 0x70A SWAP2 SWAP1 PUSH3 0x101B JUMP JUMPDEST PUSH3 0x729 JUMPI PUSH1 0x40 MLOAD PUSH3 0x461BCD PUSH1 0xE5 SHL DUP2 MSTORE PUSH1 0x4 ADD PUSH3 0x1E0 SWAP1 PUSH3 0x123F JUMP JUMPDEST PUSH1 0x40 MLOAD PUSH4 0x23B872DD PUSH1 0xE0 SHL DUP2 MSTORE PUSH1 0x1 PUSH1 0x1 PUSH1 0xA0 SHL SUB DUP5 AND SWAP1 PUSH4 0x23B872DD SWAP1 PUSH3 0x75B SWAP1 CALLER SWAP1 ADDRESS SWAP1 DUP7 SWAP1 PUSH1 0x4 ADD PUSH3 0x10E2 JUMP JUMPDEST PUSH1 0x20 PUSH1 0x40 MLOAD DUP1 DUP4 SUB DUP2 PUSH1 0x0 DUP8 DUP1 EXTCODESIZE ISZERO DUP1 ISZERO PUSH3 0x776 JUMPI PUSH1 0x0 DUP1 REVERT JUMPDEST POP GAS CALL ISZERO DUP1 ISZERO PUSH3 0x78B JUMPI RETURNDATASIZE PUSH1 0x0 DUP1 RETURNDATACOPY RETURNDATASIZE PUSH1 0x0 REVERT JUMPDEST POP POP POP POP PUSH1 0x40 MLOAD RETURNDATASIZE PUSH1 0x1F NOT PUSH1 0x1F DUP3 ADD AND DUP3 ADD DUP1 PUSH1 0x40 MSTORE POP DUP2 ADD SWAP1 PUSH3 0x7B1 SWAP2 SWAP1 PUSH3 0x101B JUMP JUMPDEST PUSH3 0x515 JUMPI PUSH1 0x40 MLOAD PUSH3 0x461BCD PUSH1 0xE5 SHL DUP2 MSTORE PUSH1 0x4 ADD PUSH3 0x1E0 SWAP1 PUSH3 0x1208 JUMP JUMPDEST PUSH1 0x7 SLOAD PUSH1 0xFF AND PUSH3 0x7F5 JUMPI PUSH1 0x40 MLOAD PUSH3 0x461BCD PUSH1 0xE5 SHL DUP2 MSTORE PUSH1 0x4 ADD PUSH3 0x1E0 SWAP1 PUSH3 0x12AB JUMP JUMPDEST PUSH1 0x7 SLOAD PUSH1 0xFF AND PUSH3 0x81A JUMPI PUSH1 0x40 MLOAD PUSH3 0x461BCD PUSH1 0xE5 SHL DUP2 MSTORE PUSH1 0x4 ADD PUSH3 0x1E0 SWAP1 PUSH3 0x12AB JUMP JUMPDEST PUSH1 0x0 DUP4 GT PUSH3 0x83D JUMPI PUSH1 0x40 MLOAD PUSH3 0x461BCD PUSH1 0xE5 SHL DUP2 MSTORE PUSH1 0x4 ADD PUSH3 0x1E0 SWAP1 PUSH3 0x111F JUMP JUMPDEST PUSH1 0x0 PUSH3 0x84B DUP5 DUP4 PUSH3 0xEA6 JUMP JUMPDEST SWAP1 POP DUP3 DUP2 LT ISZERO PUSH3 0x870 JUMPI PUSH1 0x40 MLOAD PUSH3 0x461BCD PUSH1 0xE5 SHL DUP2 MSTORE PUSH1 0x4 ADD PUSH3 0x1E0 SWAP1 PUSH3 0x1407 JUMP JUMPDEST PUSH1 0x0 DUP1 DUP1 DUP5 PUSH1 0x1 DUP2 GT ISZERO PUSH3 0x895 JUMPI PUSH4 0x4E487B71 PUSH1 0xE0 SHL PUSH1 0x0 MSTORE PUSH1 0x21 PUSH1 0x4 MSTORE PUSH1 0x24 PUSH1 0x0 REVERT JUMPDEST EQ ISZERO PUSH3 0x8DB JUMPI PUSH1 0x3 SLOAD PUSH3 0x8AB SWAP1 DUP8 PUSH3 0xE98 JUMP JUMPDEST PUSH1 0x3 SSTORE PUSH1 0x4 SLOAD PUSH3 0x8BD SWAP1 DUP5 PUSH3 0xE8A JUMP JUMPDEST PUSH1 0x4 SSTORE POP POP PUSH1 0x1 SLOAD PUSH1 0x2 SLOAD PUSH1 0x1 PUSH1 0x1 PUSH1 0xA0 SHL SUB SWAP2 DUP3 AND SWAP2 AND PUSH3 0x915 JUMP JUMPDEST PUSH1 0x3 SLOAD PUSH3 0x8EA SWAP1 DUP5 PUSH3 0xE8A JUMP JUMPDEST PUSH1 0x3 SSTORE PUSH1 0x4 SLOAD PUSH3 0x8FC SWAP1 DUP8 PUSH3 0xE98 JUMP JUMPDEST PUSH1 0x4 SSTORE POP POP PUSH1 0x2 SLOAD PUSH1 0x1 SLOAD PUSH1 0x1 PUSH1 0x1 PUSH1 0xA0 SHL SUB SWAP2 DUP3 AND SWAP2 AND JUMPDEST PUSH1 0x40 MLOAD PUSH4 0xA9059CBB PUSH1 0xE0 SHL DUP2 MSTORE PUSH1 0x1 PUSH1 0x1 PUSH1 0xA0 SHL SUB DUP3 AND SWAP1 PUSH4 0xA9059CBB SWAP1 PUSH3 0x945 SWAP1 CALLER SWAP1 DUP8 SWAP1 PUSH1 0x4 ADD PUSH3 0x1106 JUMP JUMPDEST PUSH1 0x20 PUSH1 0x40 MLOAD DUP1 DUP4 SUB DUP2 PUSH1 0x0 DUP8 DUP1 EXTCODESIZE ISZERO DUP1 ISZERO PUSH3 0x960 JUMPI PUSH1 0x0 DUP1 REVERT JUMPDEST POP GAS CALL ISZERO DUP1 ISZERO PUSH3 0x975 JUMPI RETURNDATASIZE PUSH1 0x0 DUP1 RETURNDATACOPY RETURNDATASIZE PUSH1 0x0 REVERT JUMPDEST POP POP POP POP PUSH1 0x40 MLOAD RETURNDATASIZE PUSH1 0x1F NOT PUSH1 0x1F DUP3 ADD AND DUP3 ADD DUP1 PUSH1 0x40 MSTORE POP DUP2 ADD SWAP1 PUSH3 0x99B SWAP2 SWAP1 PUSH3 0x101B JUMP JUMPDEST PUSH3 0x9B6 JUMPI PUSH4 0x4E487B71 PUSH1 0xE0 SHL PUSH1 0x0 MSTORE PUSH1 0x1 PUSH1 0x4 MSTORE PUSH1 0x24 PUSH1 0x0 REVERT JUMPDEST PUSH1 0x40 MLOAD PUSH4 0x23B872DD PUSH1 0xE0 SHL DUP2 MSTORE PUSH1 0x1 PUSH1 0x1 PUSH1 0xA0 SHL SUB DUP4 AND SWAP1 PUSH4 0x23B872DD SWAP1 PUSH3 0x9E8 SWAP1 CALLER SWAP1 ADDRESS SWAP1 DUP12 SWAP1 PUSH1 0x4 ADD PUSH3 0x10E2 JUMP JUMPDEST PUSH1 0x20 PUSH1 0x40 MLOAD DUP1 DUP4 SUB DUP2 PUSH1 0x0 DUP8 DUP1 EXTCODESIZE ISZERO DUP1 ISZERO PUSH3 0xA03 JUMPI PUSH1 0x0 DUP1 REVERT JUMPDEST POP GAS CALL ISZERO DUP1 ISZERO PUSH3 0xA18 JUMPI RETURNDATASIZE PUSH1 0x0 DUP1 RETURNDATACOPY RETURNDATASIZE PUSH1 0x0 REVERT JUMPDEST POP POP POP POP PUSH1 0x40 MLOAD RETURNDATASIZE PUSH1 0x1F NOT PUSH1 0x1F DUP3 ADD AND DUP3 ADD DUP1 PUSH1 0x40 MSTORE POP DUP2 ADD SWAP1 PUSH3 0xA3E SWAP2 SWAP1 PUSH3 0x101B JUMP JUMPDEST PUSH3 0xA5D JUMPI PUSH1 0x40 MLOAD PUSH3 0x461BCD PUSH1 0xE5 SHL DUP2 MSTORE PUSH1 0x4 ADD PUSH3 0x1E0 SWAP1 PUSH3 0x12F0 JUMP JUMPDEST POP POP POP POP POP POP JUMP JUMPDEST PUSH1 0x3 SLOAD DUP2 JUMP JUMPDEST PUSH1 0x0 DUP1 PUSH3 0xA8F PUSH1 0x5 SLOAD PUSH3 0x305 PUSH3 0xF4240 PUSH1 0x3 SLOAD PUSH3 0xE67 SWAP1 SWAP2 SWAP1 PUSH4 0xFFFFFFFF AND JUMP JUMPDEST PUSH3 0xAB0 PUSH1 0x5 SLOAD PUSH3 0x305 PUSH3 0xF4240 PUSH1 0x4 SLOAD PUSH3 0xE67 SWAP1 SWAP2 SWAP1 PUSH4 0xFFFFFFFF AND JUMP JUMPDEST SWAP2 POP SWAP2 POP SWAP1 SWAP2 JUMP JUMPDEST PUSH3 0xAC2 PUSH3 0xF90 JUMP JUMPDEST PUSH1 0x1 PUSH1 0x1 PUSH1 0xA0 SHL SUB AND PUSH3 0xAD5 PUSH3 0xB12 JUMP JUMPDEST PUSH1 0x1 PUSH1 0x1 PUSH1 0xA0 SHL SUB AND EQ PUSH3 0xAFE JUMPI PUSH1 0x40 MLOAD PUSH3 0x461BCD PUSH1 0xE5 SHL DUP2 MSTORE PUSH1 0x4 ADD PUSH3 0x1E0 SWAP1 PUSH3 0x139D JUMP JUMPDEST PUSH3 0xB0A PUSH1 0x0 PUSH3 0xF94 JUMP JUMPDEST JUMP JUMPDEST PUSH1 0x5 SLOAD DUP2 JUMP JUMPDEST PUSH1 0x0 SLOAD PUSH1 0x1 PUSH1 0x1 PUSH1 0xA0 SHL SUB AND SWAP1 JUMP JUMPDEST PUSH1 0x4 SLOAD DUP2 JUMP JUMPDEST PUSH1 0x6 SLOAD DUP2 JUMP JUMPDEST PUSH3 0xB37 PUSH3 0xF90 JUMP JUMPDEST PUSH1 0x1 PUSH1 0x1 PUSH1 0xA0 SHL SUB AND PUSH3 0xB4A PUSH3 0xB12 JUMP JUMPDEST PUSH1 0x1 PUSH1 0x1 PUSH1 0xA0 SHL SUB AND EQ PUSH3 0xB73 JUMPI PUSH1 0x40 MLOAD PUSH3 0x461BCD PUSH1 0xE5 SHL DUP2 MSTORE PUSH1 0x4 ADD PUSH3 0x1E0 SWAP1 PUSH3 0x139D JUMP JUMPDEST PUSH1 0x7 SLOAD PUSH1 0xFF AND ISZERO PUSH3 0xB99 JUMPI PUSH1 0x40 MLOAD PUSH3 0x461BCD PUSH1 0xE5 SHL DUP2 MSTORE PUSH1 0x4 ADD PUSH3 0x1E0 SWAP1 PUSH3 0x13D2 JUMP JUMPDEST ADDRESS PUSH1 0x40 MLOAD PUSH3 0xBA8 SWAP1 PUSH3 0xFE4 JUMP JUMPDEST PUSH3 0xBB4 SWAP2 SWAP1 PUSH3 0x10CE JUMP JUMPDEST PUSH1 0x40 MLOAD DUP1 SWAP2 SUB SWAP1 PUSH1 0x0 CREATE DUP1 ISZERO DUP1 ISZERO PUSH3 0xBD1 JUMPI RETURNDATASIZE PUSH1 0x0 DUP1 RETURNDATACOPY RETURNDATASIZE PUSH1 0x0 REVERT JUMPDEST POP PUSH1 0x7 DUP1 SLOAD PUSH2 0x100 PUSH1 0x1 PUSH1 0xA8 SHL SUB NOT AND PUSH2 0x100 PUSH1 0x1 PUSH1 0x1 PUSH1 0xA0 SHL SUB SWAP4 DUP5 AND MUL OR SWAP1 SSTORE PUSH1 0x1 SLOAD PUSH1 0x2 SLOAD PUSH1 0x40 MLOAD PUSH4 0x23B872DD PUSH1 0xE0 SHL DUP2 MSTORE SWAP2 DUP4 AND SWAP3 AND SWAP1 DUP3 SWAP1 PUSH4 0x23B872DD SWAP1 PUSH3 0xC28 SWAP1 CALLER SWAP1 ADDRESS SWAP1 DUP10 SWAP1 PUSH1 0x4 ADD PUSH3 0x10E2 JUMP JUMPDEST PUSH1 0x20 PUSH1 0x40 MLOAD DUP1 DUP4 SUB DUP2 PUSH1 0x0 DUP8 DUP1 EXTCODESIZE ISZERO DUP1 ISZERO PUSH3 0xC43 JUMPI PUSH1 0x0 DUP1 REVERT JUMPDEST POP GAS CALL ISZERO DUP1 ISZERO PUSH3 0xC58 JUMPI RETURNDATASIZE PUSH1 0x0 DUP1 RETURNDATACOPY RETURNDATASIZE PUSH1 0x0 REVERT JUMPDEST POP POP POP POP PUSH1 0x40 MLOAD RETURNDATASIZE PUSH1 0x1F NOT PUSH1 0x1F DUP3 ADD AND DUP3 ADD DUP1 PUSH1 0x40 MSTORE POP DUP2 ADD SWAP1 PUSH3 0xC7E SWAP2 SWAP1 PUSH3 0x101B JUMP JUMPDEST PUSH3 0xC9D JUMPI PUSH1 0x40 MLOAD PUSH3 0x461BCD PUSH1 0xE5 SHL DUP2 MSTORE PUSH1 0x4 ADD PUSH3 0x1E0 SWAP1 PUSH3 0x123F JUMP JUMPDEST PUSH1 0x40 MLOAD PUSH4 0x23B872DD PUSH1 0xE0 SHL DUP2 MSTORE PUSH1 0x1 PUSH1 0x1 PUSH1 0xA0 SHL SUB DUP3 AND SWAP1 PUSH4 0x23B872DD SWAP1 PUSH3 0xCCF SWAP1 CALLER SWAP1 ADDRESS SWAP1 DUP9 SWAP1 PUSH1 0x4 ADD PUSH3 0x10E2 JUMP JUMPDEST PUSH1 0x20 PUSH1 0x40 MLOAD DUP1 DUP4 SUB DUP2 PUSH1 0x0 DUP8 DUP1 EXTCODESIZE ISZERO DUP1 ISZERO PUSH3 0xCEA JUMPI PUSH1 0x0 DUP1 REVERT JUMPDEST POP GAS CALL ISZERO DUP1 ISZERO PUSH3 0xCFF JUMPI RETURNDATASIZE PUSH1 0x0 DUP1 RETURNDATACOPY RETURNDATASIZE PUSH1 0x0 REVERT JUMPDEST POP POP POP POP PUSH1 0x40 MLOAD RETURNDATASIZE PUSH1 0x1F NOT PUSH1 0x1F DUP3 ADD AND DUP3 ADD DUP1 PUSH1 0x40 MSTORE POP DUP2 ADD SWAP1 PUSH3 0xD25 SWAP2 SWAP1 PUSH3 0x101B JUMP JUMPDEST PUSH3 0xD44 JUMPI PUSH1 0x40 MLOAD PUSH3 0x461BCD PUSH1 0xE5 SHL DUP2 MSTORE PUSH1 0x4 ADD PUSH3 0x1E0 SWAP1 PUSH3 0x1208 JUMP JUMPDEST PUSH1 0x3 SLOAD PUSH3 0xD53 SWAP1 DUP6 PUSH3 0xE98 JUMP JUMPDEST PUSH1 0x3 SSTORE PUSH1 0x4 SLOAD PUSH3 0xD65 SWAP1 DUP5 PUSH3 0xE98 JUMP JUMPDEST PUSH1 0x4 SWAP1 DUP2 SSTORE PUSH1 0x5 DUP5 SWAP1 SSTORE PUSH1 0x7 SLOAD PUSH1 0x40 MLOAD PUSH4 0x140E25AD PUSH1 0xE3 SHL DUP2 MSTORE PUSH2 0x100 SWAP1 SWAP2 DIV PUSH1 0x1 PUSH1 0x1 PUSH1 0xA0 SHL SUB AND SWAP2 PUSH4 0xA0712D68 SWAP2 PUSH3 0xDA3 SWAP2 DUP8 SWAP2 ADD PUSH3 0x145C JUMP JUMPDEST PUSH1 0x0 PUSH1 0x40 MLOAD DUP1 DUP4 SUB DUP2 PUSH1 0x0 DUP8 DUP1 EXTCODESIZE ISZERO DUP1 ISZERO PUSH3 0xDBE JUMPI PUSH1 0x0 DUP1 REVERT JUMPDEST POP GAS CALL ISZERO DUP1 ISZERO PUSH3 0xDD3 JUMPI RETURNDATASIZE PUSH1 0x0 DUP1 RETURNDATACOPY RETURNDATASIZE PUSH1 0x0 REVERT JUMPDEST POP POP PUSH1 0x7 DUP1 SLOAD PUSH1 0xFF NOT AND PUSH1 0x1 OR SWAP1 SSTORE POP POP POP POP POP POP JUMP JUMPDEST PUSH3 0xDF4 PUSH3 0xF90 JUMP JUMPDEST PUSH1 0x1 PUSH1 0x1 PUSH1 0xA0 SHL SUB AND PUSH3 0xE07 PUSH3 0xB12 JUMP JUMPDEST PUSH1 0x1 PUSH1 0x1 PUSH1 0xA0 SHL SUB AND EQ PUSH3 0xE30 JUMPI PUSH1 0x40 MLOAD PUSH3 0x461BCD PUSH1 0xE5 SHL DUP2 MSTORE PUSH1 0x4 ADD PUSH3 0x1E0 SWAP1 PUSH3 0x139D JUMP JUMPDEST PUSH1 0x1 PUSH1 0x1 PUSH1 0xA0 SHL SUB DUP2 AND PUSH3 0xE59 JUMPI PUSH1 0x40 MLOAD PUSH3 0x461BCD PUSH1 0xE5 SHL DUP2 MSTORE PUSH1 0x4 ADD PUSH3 0x1E0 SWAP1 PUSH3 0x1173 JUMP JUMPDEST PUSH3 0xE64 DUP2 PUSH3 0xF94 JUMP JUMPDEST POP JUMP JUMPDEST PUSH1 0x0 PUSH3 0xE75 DUP3 DUP5 PUSH3 0x14AF JUMP JUMPDEST SWAP4 SWAP3 POP POP POP JUMP JUMPDEST PUSH1 0x0 PUSH3 0xE75 DUP3 DUP5 PUSH3 0x148E JUMP JUMPDEST PUSH1 0x0 PUSH3 0xE75 DUP3 DUP5 PUSH3 0x14D1 JUMP JUMPDEST PUSH1 0x0 PUSH3 0xE75 DUP3 DUP5 PUSH3 0x1473 JUMP JUMPDEST PUSH1 0x0 DUP1 DUP1 DUP4 PUSH1 0x1 DUP2 GT ISZERO PUSH3 0xECB JUMPI PUSH4 0x4E487B71 PUSH1 0xE0 SHL PUSH1 0x0 MSTORE PUSH1 0x21 PUSH1 0x4 MSTORE PUSH1 0x24 PUSH1 0x0 REVERT JUMPDEST EQ PUSH3 0xEDA JUMPI PUSH1 0x3 SLOAD PUSH3 0xEDE JUMP JUMPDEST PUSH1 0x4 SLOAD JUMPDEST SWAP1 POP PUSH1 0x0 DUP1 DUP5 PUSH1 0x1 DUP2 GT ISZERO PUSH3 0xF04 JUMPI PUSH4 0x4E487B71 PUSH1 0xE0 SHL PUSH1 0x0 MSTORE PUSH1 0x21 PUSH1 0x4 MSTORE PUSH1 0x24 PUSH1 0x0 REVERT JUMPDEST EQ PUSH3 0xF13 JUMPI PUSH1 0x4 SLOAD PUSH3 0xF17 JUMP JUMPDEST PUSH1 0x3 SLOAD JUMPDEST SWAP1 POP PUSH1 0x0 PUSH3 0xF34 PUSH1 0x3 SLOAD PUSH1 0x4 SLOAD PUSH3 0xE67 SWAP1 SWAP2 SWAP1 PUSH4 0xFFFFFFFF AND JUMP JUMPDEST SWAP1 POP PUSH1 0x0 PUSH3 0xF5C PUSH3 0xF54 PUSH3 0xF4C DUP6 DUP11 PUSH3 0xE98 JUMP JUMPDEST DUP5 SWAP1 PUSH3 0xE7C JUMP JUMPDEST DUP6 SWAP1 PUSH3 0xE8A JUMP JUMPDEST SWAP1 POP PUSH3 0xF85 PUSH3 0xF4240 PUSH3 0x305 PUSH1 0x6 SLOAD PUSH3 0xF4240 PUSH3 0xF7D SWAP2 SWAP1 PUSH3 0x14D1 JUMP JUMPDEST DUP5 SWAP1 PUSH3 0xE67 JUMP JUMPDEST SWAP8 SWAP7 POP POP POP POP POP POP POP JUMP JUMPDEST CALLER SWAP1 JUMP JUMPDEST PUSH1 0x0 DUP1 SLOAD PUSH1 0x1 PUSH1 0x1 PUSH1 0xA0 SHL SUB DUP4 DUP2 AND PUSH1 0x1 PUSH1 0x1 PUSH1 0xA0 SHL SUB NOT DUP4 AND DUP2 OR DUP5 SSTORE PUSH1 0x40 MLOAD SWAP2 SWAP1 SWAP3 AND SWAP3 DUP4 SWAP2 PUSH32 0x8BE0079C531659141344CD1FD0A4F28419497F9722A3DAAFE3B4186F6B6457E0 SWAP2 SWAP1 LOG3 POP POP JUMP JUMPDEST PUSH2 0xFB1 DUP1 PUSH3 0x1502 DUP4 CODECOPY ADD SWAP1 JUMP JUMPDEST PUSH1 0x0 PUSH1 0x20 DUP3 DUP5 SUB SLT ISZERO PUSH3 0x1004 JUMPI DUP1 DUP2 REVERT JUMPDEST DUP2 CALLDATALOAD PUSH1 0x1 PUSH1 0x1 PUSH1 0xA0 SHL SUB DUP2 AND DUP2 EQ PUSH3 0xE75 JUMPI DUP2 DUP3 REVERT JUMPDEST PUSH1 0x0 PUSH1 0x20 DUP3 DUP5 SUB SLT ISZERO PUSH3 0x102D JUMPI DUP1 DUP2 REVERT JUMPDEST DUP2 MLOAD DUP1 ISZERO ISZERO DUP2 EQ PUSH3 0xE75 JUMPI DUP2 DUP3 REVERT JUMPDEST PUSH1 0x0 PUSH1 0x20 DUP3 DUP5 SUB SLT ISZERO PUSH3 0x104F JUMPI DUP1 DUP2 REVERT JUMPDEST POP CALLDATALOAD SWAP2 SWAP1 POP JUMP JUMPDEST PUSH1 0x0 PUSH1 0x20 DUP3 DUP5 SUB SLT ISZERO PUSH3 0x1068 JUMPI DUP1 DUP2 REVERT JUMPDEST POP MLOAD SWAP2 SWAP1 POP JUMP JUMPDEST PUSH1 0x0 DUP1 PUSH1 0x40 DUP4 DUP6 SUB SLT ISZERO PUSH3 0x1082 JUMPI DUP1 DUP2 REVERT JUMPDEST POP POP DUP1 CALLDATALOAD SWAP3 PUSH1 0x20 SWAP1 SWAP2 ADD CALLDATALOAD SWAP2 POP JUMP JUMPDEST PUSH1 0x0 DUP1 PUSH1 0x0 PUSH1 0x60 DUP5 DUP7 SUB SLT ISZERO PUSH3 0x10A6 JUMPI DUP1 DUP2 REVERT JUMPDEST DUP4 CALLDATALOAD SWAP3 POP PUSH1 0x20 DUP5 ADD CALLDATALOAD SWAP2 POP PUSH1 0x40 DUP5 ADD CALLDATALOAD PUSH1 0x2 DUP2 LT PUSH3 0x10C3 JUMPI DUP2 DUP3 REVERT JUMPDEST DUP1 SWAP2 POP POP SWAP3 POP SWAP3 POP SWAP3 JUMP JUMPDEST PUSH1 0x1 PUSH1 0x1 PUSH1 0xA0 SHL SUB SWAP2 SWAP1 SWAP2 AND DUP2 MSTORE PUSH1 0x20 ADD SWAP1 JUMP JUMPDEST PUSH1 0x1 PUSH1 0x1 PUSH1 0xA0 SHL SUB SWAP4 DUP5 AND DUP2 MSTORE SWAP2 SWAP1 SWAP3 AND PUSH1 0x20 DUP3 ADD MSTORE PUSH1 0x40 DUP2 ADD SWAP2 SWAP1 SWAP2 MSTORE PUSH1 0x60 ADD SWAP1 JUMP JUMPDEST PUSH1 0x1 PUSH1 0x1 PUSH1 0xA0 SHL SUB SWAP3 SWAP1 SWAP3 AND DUP3 MSTORE PUSH1 0x20 DUP3 ADD MSTORE PUSH1 0x40 ADD SWAP1 JUMP JUMPDEST PUSH1 0x20 DUP1 DUP3 MSTORE PUSH1 0x34 SWAP1 DUP3 ADD MSTORE PUSH32 0x54686520616D6F756E7420746F2073656C6C2073686F756C6420626520737472 PUSH1 0x40 DUP3 ADD MSTORE PUSH20 0x34B1BA363C903134B3B3B2B9103A3430B7101817 PUSH1 0x61 SHL PUSH1 0x60 DUP3 ADD MSTORE PUSH1 0x80 ADD SWAP1 JUMP JUMPDEST PUSH1 0x20 DUP1 DUP3 MSTORE PUSH1 0x26 SWAP1 DUP3 ADD MSTORE PUSH32 0x4F776E61626C653A206E6577206F776E657220697320746865207A65726F2061 PUSH1 0x40 DUP3 ADD MSTORE PUSH6 0x646472657373 PUSH1 0xD0 SHL PUSH1 0x60 DUP3 ADD MSTORE PUSH1 0x80 ADD SWAP1 JUMP JUMPDEST PUSH1 0x20 DUP1 DUP3 MSTORE PUSH1 0x2F SWAP1 DUP3 ADD MSTORE PUSH32 0x54686520616D6F756E74206F6620737570706C696564206C7020746F6B656E73 PUSH1 0x40 DUP3 ADD MSTORE PUSH15 0x1039B437BAB632103132901F101817 PUSH1 0x89 SHL PUSH1 0x60 DUP3 ADD MSTORE PUSH1 0x80 ADD SWAP1 JUMP JUMPDEST PUSH1 0x20 DUP1 DUP3 MSTORE PUSH1 0x18 SWAP1 DUP3 ADD MSTORE PUSH32 0x5553444320616D6F756E7420756E617661696C61626C652E0000000000000000 PUSH1 0x40 DUP3 ADD MSTORE PUSH1 0x60 ADD SWAP1 JUMP JUMPDEST PUSH1 0x20 DUP1 DUP3 MSTORE PUSH1 0x18 SWAP1 DUP3 ADD MSTORE PUSH32 0x4C696E6B20616D6F756E7420756E617661696C61626C652E0000000000000000 PUSH1 0x40 DUP3 ADD MSTORE PUSH1 0x60 ADD SWAP1 JUMP JUMPDEST PUSH1 0x20 DUP1 DUP3 MSTORE DUP2 DUP2 ADD MSTORE PUSH32 0x596F7520646F6E2774206861766520656E6F756768204C5020746F6B656E732E PUSH1 0x40 DUP3 ADD MSTORE PUSH1 0x60 ADD SWAP1 JUMP JUMPDEST PUSH1 0x20 DUP1 DUP3 MSTORE PUSH1 0x25 SWAP1 DUP3 ADD MSTORE PUSH32 0x54686520706F6F6C2073686F756C6420626520696E697469616C697A65642066 PUSH1 0x40 DUP3 ADD MSTORE PUSH5 0x34B939BA17 PUSH1 0xD9 SHL PUSH1 0x60 DUP3 ADD MSTORE PUSH1 0x80 ADD SWAP1 JUMP JUMPDEST PUSH1 0x20 DUP1 DUP3 MSTORE PUSH1 0x38 SWAP1 DUP3 ADD MSTORE PUSH32 0x5472616E73666572206F662074686520616D6F756E74206F6620746F6B656E20 PUSH1 0x40 DUP3 ADD MSTORE PUSH32 0x796F752077616E7420746F2073656C6C206661696C65642E0000000000000000 PUSH1 0x60 DUP3 ADD MSTORE PUSH1 0x80 ADD SWAP1 JUMP JUMPDEST PUSH1 0x20 DUP1 DUP3 MSTORE PUSH1 0x30 SWAP1 DUP3 ADD MSTORE PUSH32 0x54686520616D6F756E74206F6620726571756573746564206C7020746F6B656E PUSH1 0x40 DUP3 ADD MSTORE PUSH16 0x399039B437BAB632103132901F101817 PUSH1 0x81 SHL PUSH1 0x60 DUP3 ADD MSTORE PUSH1 0x80 ADD SWAP1 JUMP JUMPDEST PUSH1 0x20 DUP1 DUP3 MSTORE DUP2 DUP2 ADD MSTORE PUSH32 0x4F776E61626C653A2063616C6C6572206973206E6F7420746865206F776E6572 PUSH1 0x40 DUP3 ADD MSTORE PUSH1 0x60 ADD SWAP1 JUMP JUMPDEST PUSH1 0x20 DUP1 DUP3 MSTORE DUP2 DUP2 ADD MSTORE PUSH32 0x54686520706F6F6C2077617320616C726561647920696E697469616C697A6564 PUSH1 0x40 DUP3 ADD MSTORE PUSH1 0x60 ADD SWAP1 JUMP JUMPDEST PUSH1 0x20 DUP1 DUP3 MSTORE PUSH1 0x35 SWAP1 DUP3 ADD MSTORE PUSH32 0x54686520616D6F756E74206F662070757263686173656420746F6B656E206973 PUSH1 0x40 DUP3 ADD MSTORE PUSH21 0x103637BBB2B9103A3430B7103932B8BAB4B932B217 PUSH1 0x59 SHL PUSH1 0x60 DUP3 ADD MSTORE PUSH1 0x80 ADD SWAP1 JUMP JUMPDEST SWAP1 DUP2 MSTORE PUSH1 0x20 ADD SWAP1 JUMP JUMPDEST SWAP2 DUP3 MSTORE PUSH1 0x20 DUP3 ADD MSTORE PUSH1 0x40 ADD SWAP1 JUMP JUMPDEST PUSH1 0x0 DUP3 NOT DUP3 GT ISZERO PUSH3 0x1489 JUMPI PUSH3 0x1489 PUSH3 0x14EB JUMP JUMPDEST POP ADD SWAP1 JUMP JUMPDEST PUSH1 0x0 DUP3 PUSH3 0x14AA JUMPI PUSH4 0x4E487B71 PUSH1 0xE0 SHL DUP2 MSTORE PUSH1 0x12 PUSH1 0x4 MSTORE PUSH1 0x24 DUP2 REVERT JUMPDEST POP DIV SWAP1 JUMP JUMPDEST PUSH1 0x0 DUP2 PUSH1 0x0 NOT DIV DUP4 GT DUP3 ISZERO ISZERO AND ISZERO PUSH3 0x14CC JUMPI PUSH3 0x14CC PUSH3 0x14EB JUMP JUMPDEST POP MUL SWAP1 JUMP JUMPDEST PUSH1 0x0 DUP3 DUP3 LT ISZERO PUSH3 0x14E6 JUMPI PUSH3 0x14E6 PUSH3 0x14EB JUMP JUMPDEST POP SUB SWAP1 JUMP JUMPDEST PUSH4 0x4E487B71 PUSH1 0xE0 SHL PUSH1 0x0 MSTORE PUSH1 0x11 PUSH1 0x4 MSTORE PUSH1 0x24 PUSH1 0x0 REVERT INVALID PUSH1 0x80 PUSH1 0x40 MSTORE CALLVALUE DUP1 ISZERO PUSH3 0x11 JUMPI PUSH1 0x0 DUP1 REVERT JUMPDEST POP PUSH1 0x40 MLOAD PUSH3 0xFB1 CODESIZE SUB DUP1 PUSH3 0xFB1 DUP4 CODECOPY DUP2 ADD PUSH1 0x40 DUP2 SWAP1 MSTORE PUSH3 0x34 SWAP2 PUSH3 0x174 JUMP JUMPDEST PUSH1 0x40 DUP1 MLOAD DUP1 DUP3 ADD DUP3 MSTORE PUSH1 0xE DUP2 MSTORE PUSH14 0x4C702053696D706C65205377617 PUSH1 0x94 SHL PUSH1 0x20 DUP1 DUP4 ADD SWAP2 DUP3 MSTORE DUP4 MLOAD DUP1 DUP6 ADD SWAP1 SWAP5 MSTORE PUSH1 0xC DUP5 MSTORE PUSH12 0x4C7053696D706C655377617 PUSH1 0xA4 SHL SWAP1 DUP5 ADD MSTORE DUP2 MLOAD SWAP2 SWAP3 SWAP2 PUSH3 0x8E SWAP2 PUSH1 0x3 SWAP2 PUSH3 0xCE JUMP JUMPDEST POP DUP1 MLOAD PUSH3 0xA4 SWAP1 PUSH1 0x4 SWAP1 PUSH1 0x20 DUP5 ADD SWAP1 PUSH3 0xCE JUMP JUMPDEST POP POP PUSH1 0x5 DUP1 SLOAD PUSH1 0x1 PUSH1 0x1 PUSH1 0xA0 SHL SUB NOT AND PUSH1 0x1 PUSH1 0x1 PUSH1 0xA0 SHL SUB SWAP4 SWAP1 SWAP4 AND SWAP3 SWAP1 SWAP3 OR SWAP1 SWAP2 SSTORE POP PUSH3 0x1E1 JUMP JUMPDEST DUP3 DUP1 SLOAD PUSH3 0xDC SWAP1 PUSH3 0x1A4 JUMP JUMPDEST SWAP1 PUSH1 0x0 MSTORE PUSH1 0x20 PUSH1 0x0 KECCAK256 SWAP1 PUSH1 0x1F ADD PUSH1 0x20 SWAP1 DIV DUP2 ADD SWAP3 DUP3 PUSH3 0x100 JUMPI PUSH1 0x0 DUP6 SSTORE PUSH3 0x14B JUMP JUMPDEST DUP3 PUSH1 0x1F LT PUSH3 0x11B JUMPI DUP1 MLOAD PUSH1 0xFF NOT AND DUP4 DUP1 ADD OR DUP6 SSTORE PUSH3 0x14B JUMP JUMPDEST DUP3 DUP1 ADD PUSH1 0x1 ADD DUP6 SSTORE DUP3 ISZERO PUSH3 0x14B JUMPI SWAP2 DUP3 ADD JUMPDEST DUP3 DUP2 GT ISZERO PUSH3 0x14B JUMPI DUP3 MLOAD DUP3 SSTORE SWAP2 PUSH1 0x20 ADD SWAP2 SWAP1 PUSH1 0x1 ADD SWAP1 PUSH3 0x12E JUMP JUMPDEST POP PUSH3 0x159 SWAP3 SWAP2 POP PUSH3 0x15D JUMP JUMPDEST POP SWAP1 JUMP JUMPDEST JUMPDEST DUP1 DUP3 GT ISZERO PUSH3 0x159 JUMPI PUSH1 0x0 DUP2 SSTORE PUSH1 0x1 ADD PUSH3 0x15E JUMP JUMPDEST PUSH1 0x0 PUSH1 0x20 DUP3 DUP5 SUB SLT ISZERO PUSH3 0x186 JUMPI DUP1 DUP2 REVERT JUMPDEST DUP2 MLOAD PUSH1 0x1 PUSH1 0x1 PUSH1 0xA0 SHL SUB DUP2 AND DUP2 EQ PUSH3 0x19D JUMPI DUP2 DUP3 REVERT JUMPDEST SWAP4 SWAP3 POP POP POP JUMP JUMPDEST PUSH1 0x2 DUP2 DIV PUSH1 0x1 DUP3 AND DUP1 PUSH3 0x1B9 JUMPI PUSH1 0x7F DUP3 AND SWAP2 POP JUMPDEST PUSH1 0x20 DUP3 LT DUP2 EQ ISZERO PUSH3 0x1DB JUMPI PUSH4 0x4E487B71 PUSH1 0xE0 SHL PUSH1 0x0 MSTORE PUSH1 0x22 PUSH1 0x4 MSTORE PUSH1 0x24 PUSH1 0x0 REVERT JUMPDEST POP SWAP2 SWAP1 POP JUMP JUMPDEST PUSH2 0xDC0 DUP1 PUSH3 0x1F1 PUSH1 0x0 CODECOPY PUSH1 0x0 RETURN INVALID PUSH1 0x80 PUSH1 0x40 MSTORE CALLVALUE DUP1 ISZERO PUSH2 0x10 JUMPI PUSH1 0x0 DUP1 REVERT JUMPDEST POP PUSH1 0x4 CALLDATASIZE LT PUSH2 0xEA JUMPI PUSH1 0x0 CALLDATALOAD PUSH1 0xE0 SHR DUP1 PUSH4 0x70A08231 GT PUSH2 0x8C JUMPI DUP1 PUSH4 0xA0712D68 GT PUSH2 0x66 JUMPI DUP1 PUSH4 0xA0712D68 EQ PUSH2 0x1C0 JUMPI DUP1 PUSH4 0xA457C2D7 EQ PUSH2 0x1D3 JUMPI DUP1 PUSH4 0xA9059CBB EQ PUSH2 0x1E6 JUMPI DUP1 PUSH4 0xDD62ED3E EQ PUSH2 0x1F9 JUMPI PUSH2 0xEA JUMP JUMPDEST DUP1 PUSH4 0x70A08231 EQ PUSH2 0x192 JUMPI DUP1 PUSH4 0x79CC6790 EQ PUSH2 0x1A5 JUMPI DUP1 PUSH4 0x95D89B41 EQ PUSH2 0x1B8 JUMPI PUSH2 0xEA JUMP JUMPDEST DUP1 PUSH4 0x23B872DD GT PUSH2 0xC8 JUMPI DUP1 PUSH4 0x23B872DD EQ PUSH2 0x142 JUMPI DUP1 PUSH4 0x313CE567 EQ PUSH2 0x155 JUMPI DUP1 PUSH4 0x39509351 EQ PUSH2 0x16A JUMPI DUP1 PUSH4 0x42966C68 EQ PUSH2 0x17D JUMPI PUSH2 0xEA JUMP JUMPDEST DUP1 PUSH4 0x6FDDE03 EQ PUSH2 0xEF JUMPI DUP1 PUSH4 0x95EA7B3 EQ PUSH2 0x10D JUMPI DUP1 PUSH4 0x18160DDD EQ PUSH2 0x12D JUMPI JUMPDEST PUSH1 0x0 DUP1 REVERT JUMPDEST PUSH2 0xF7 PUSH2 0x20C JUMP JUMPDEST PUSH1 0x40 MLOAD PUSH2 0x104 SWAP2 SWAP1 PUSH2 0x9C1 JUMP JUMPDEST PUSH1 0x40 MLOAD DUP1 SWAP2 SUB SWAP1 RETURN JUMPDEST PUSH2 0x120 PUSH2 0x11B CALLDATASIZE PUSH1 0x4 PUSH2 0x975 JUMP JUMPDEST PUSH2 0x29E JUMP JUMPDEST PUSH1 0x40 MLOAD PUSH2 0x104 SWAP2 SWAP1 PUSH2 0x9B6 JUMP JUMPDEST PUSH2 0x135 PUSH2 0x2BB JUMP JUMPDEST PUSH1 0x40 MLOAD PUSH2 0x104 SWAP2 SWAP1 PUSH2 0xCF3 JUMP JUMPDEST PUSH2 0x120 PUSH2 0x150 CALLDATASIZE PUSH1 0x4 PUSH2 0x93A JUMP JUMPDEST PUSH2 0x2C1 JUMP JUMPDEST PUSH2 0x15D PUSH2 0x35A JUMP JUMPDEST PUSH1 0x40 MLOAD PUSH2 0x104 SWAP2 SWAP1 PUSH2 0xCFC JUMP JUMPDEST PUSH2 0x120 PUSH2 0x178 CALLDATASIZE PUSH1 0x4 PUSH2 0x975 JUMP JUMPDEST PUSH2 0x35F JUMP JUMPDEST PUSH2 0x190 PUSH2 0x18B CALLDATASIZE PUSH1 0x4 PUSH2 0x99E JUMP JUMPDEST PUSH2 0x3B3 JUMP JUMPDEST STOP JUMPDEST PUSH2 0x135 PUSH2 0x1A0 CALLDATASIZE PUSH1 0x4 PUSH2 0x8E7 JUMP JUMPDEST PUSH2 0x3D7 JUMP JUMPDEST PUSH2 0x190 PUSH2 0x1B3 CALLDATASIZE PUSH1 0x4 PUSH2 0x975 JUMP JUMPDEST PUSH2 0x3F6 JUMP JUMPDEST PUSH2 0xF7 PUSH2 0x449 JUMP JUMPDEST PUSH2 0x190 PUSH2 0x1CE CALLDATASIZE PUSH1 0x4 PUSH2 0x99E JUMP JUMPDEST PUSH2 0x458 JUMP JUMPDEST PUSH2 0x120 PUSH2 0x1E1 CALLDATASIZE PUSH1 0x4 PUSH2 0x975 JUMP JUMPDEST PUSH2 0x479 JUMP JUMPDEST PUSH2 0x120 PUSH2 0x1F4 CALLDATASIZE PUSH1 0x4 PUSH2 0x975 JUMP JUMPDEST PUSH2 0x4F2 JUMP JUMPDEST PUSH2 0x135 PUSH2 0x207 CALLDATASIZE PUSH1 0x4 PUSH2 0x908 JUMP JUMPDEST PUSH2 0x506 JUMP JUMPDEST PUSH1 0x60 PUSH1 0x3 DUP1 SLOAD PUSH2 0x21B SWAP1 PUSH2 0xD39 JUMP JUMPDEST DUP1 PUSH1 0x1F ADD PUSH1 0x20 DUP1 SWAP2 DIV MUL PUSH1 0x20 ADD PUSH1 0x40 MLOAD SWAP1 DUP2 ADD PUSH1 0x40 MSTORE DUP1 SWAP3 SWAP2 SWAP1 DUP2 DUP2 MSTORE PUSH1 0x20 ADD DUP3 DUP1 SLOAD PUSH2 0x247 SWAP1 PUSH2 0xD39 JUMP JUMPDEST DUP1 ISZERO PUSH2 0x294 JUMPI DUP1 PUSH1 0x1F LT PUSH2 0x269 JUMPI PUSH2 0x100 DUP1 DUP4 SLOAD DIV MUL DUP4 MSTORE SWAP2 PUSH1 0x20 ADD SWAP2 PUSH2 0x294 JUMP JUMPDEST DUP3 ADD SWAP2 SWAP1 PUSH1 0x0 MSTORE PUSH1 0x20 PUSH1 0x0 KECCAK256 SWAP1 JUMPDEST DUP2 SLOAD DUP2 MSTORE SWAP1 PUSH1 0x1 ADD SWAP1 PUSH1 0x20 ADD DUP1 DUP4 GT PUSH2 0x277 JUMPI DUP3 SWAP1 SUB PUSH1 0x1F AND DUP3 ADD SWAP2 JUMPDEST POP POP POP POP POP SWAP1 POP SWAP1 JUMP JUMPDEST PUSH1 0x0 PUSH2 0x2B2 PUSH2 0x2AB PUSH2 0x531 JUMP JUMPDEST DUP5 DUP5 PUSH2 0x535 JUMP JUMPDEST POP PUSH1 0x1 SWAP3 SWAP2 POP POP JUMP JUMPDEST PUSH1 0x2 SLOAD SWAP1 JUMP JUMPDEST PUSH1 0x0 PUSH2 0x2CE DUP5 DUP5 DUP5 PUSH2 0x5E9 JUMP JUMPDEST PUSH1 0x1 PUSH1 0x1 PUSH1 0xA0 SHL SUB DUP5 AND PUSH1 0x0 SWAP1 DUP2 MSTORE PUSH1 0x1 PUSH1 0x20 MSTORE PUSH1 0x40 DUP2 KECCAK256 DUP2 PUSH2 0x2EF PUSH2 0x531 JUMP JUMPDEST PUSH1 0x1 PUSH1 0x1 PUSH1 0xA0 SHL SUB AND PUSH1 0x1 PUSH1 0x1 PUSH1 0xA0 SHL SUB AND DUP2 MSTORE PUSH1 0x20 ADD SWAP1 DUP2 MSTORE PUSH1 0x20 ADD PUSH1 0x0 KECCAK256 SLOAD SWAP1 POP DUP3 DUP2 LT ISZERO PUSH2 0x33B JUMPI PUSH1 0x40 MLOAD PUSH3 0x461BCD PUSH1 0xE5 SHL DUP2 MSTORE PUSH1 0x4 ADD PUSH2 0x332 SWAP1 PUSH2 0xB21 JUMP JUMPDEST PUSH1 0x40 MLOAD DUP1 SWAP2 SUB SWAP1 REVERT JUMPDEST PUSH2 0x34F DUP6 PUSH2 0x347 PUSH2 0x531 JUMP JUMPDEST DUP6 DUP5 SUB PUSH2 0x535 JUMP JUMPDEST POP PUSH1 0x1 SWAP5 SWAP4 POP POP POP POP JUMP JUMPDEST PUSH1 0x6 SWAP1 JUMP JUMPDEST PUSH1 0x0 PUSH2 0x2B2 PUSH2 0x36C PUSH2 0x531 JUMP JUMPDEST DUP5 DUP5 PUSH1 0x1 PUSH1 0x0 PUSH2 0x37A PUSH2 0x531 JUMP JUMPDEST PUSH1 0x1 PUSH1 0x1 PUSH1 0xA0 SHL SUB SWAP1 DUP2 AND DUP3 MSTORE PUSH1 0x20 DUP1 DUP4 ADD SWAP4 SWAP1 SWAP4 MSTORE PUSH1 0x40 SWAP2 DUP3 ADD PUSH1 0x0 SWAP1 DUP2 KECCAK256 SWAP2 DUP12 AND DUP2 MSTORE SWAP3 MSTORE SWAP1 KECCAK256 SLOAD PUSH2 0x3AE SWAP2 SWAP1 PUSH2 0xD0A JUMP JUMPDEST PUSH2 0x535 JUMP JUMPDEST PUSH1 0x5 SLOAD PUSH1 0x1 PUSH1 0x1 PUSH1 0xA0 SHL SUB AND CALLER EQ PUSH2 0x3CA JUMPI PUSH1 0x0 DUP1 REVERT JUMPDEST PUSH2 0x3D4 ORIGIN DUP3 PUSH2 0x3F6 JUMP JUMPDEST POP JUMP JUMPDEST PUSH1 0x1 PUSH1 0x1 PUSH1 0xA0 SHL SUB DUP2 AND PUSH1 0x0 SWAP1 DUP2 MSTORE PUSH1 0x20 DUP2 SWAP1 MSTORE PUSH1 0x40 SWAP1 KECCAK256 SLOAD JUMPDEST SWAP2 SWAP1 POP JUMP JUMPDEST PUSH1 0x0 PUSH2 0x404 DUP4 PUSH2 0x207 PUSH2 0x531 JUMP JUMPDEST SWAP1 POP DUP2 DUP2 LT ISZERO PUSH2 0x426 JUMPI PUSH1 0x40 MLOAD PUSH3 0x461BCD PUSH1 0xE5 SHL DUP2 MSTORE PUSH1 0x4 ADD PUSH2 0x332 SWAP1 PUSH2 0xB69 JUMP JUMPDEST PUSH2 0x43A DUP4 PUSH2 0x432 PUSH2 0x531 JUMP JUMPDEST DUP5 DUP5 SUB PUSH2 0x535 JUMP JUMPDEST PUSH2 0x444 DUP4 DUP4 PUSH2 0x713 JUMP JUMPDEST POP POP POP JUMP JUMPDEST PUSH1 0x60 PUSH1 0x4 DUP1 SLOAD PUSH2 0x21B SWAP1 PUSH2 0xD39 JUMP JUMPDEST PUSH1 0x5 SLOAD PUSH1 0x1 PUSH1 0x1 PUSH1 0xA0 SHL SUB AND CALLER EQ PUSH2 0x46F JUMPI PUSH1 0x0 DUP1 REVERT JUMPDEST PUSH2 0x3D4 ORIGIN DUP3 PUSH2 0x804 JUMP JUMPDEST PUSH1 0x0 DUP1 PUSH1 0x1 PUSH1 0x0 PUSH2 0x488 PUSH2 0x531 JUMP JUMPDEST PUSH1 0x1 PUSH1 0x1 PUSH1 0xA0 SHL SUB SWAP1 DUP2 AND DUP3 MSTORE PUSH1 0x20 DUP1 DUP4 ADD SWAP4 SWAP1 SWAP4 MSTORE PUSH1 0x40 SWAP2 DUP3 ADD PUSH1 0x0 SWAP1 DUP2 KECCAK256 SWAP2 DUP9 AND DUP2 MSTORE SWAP3 MSTORE SWAP1 KECCAK256 SLOAD SWAP1 POP DUP3 DUP2 LT ISZERO PUSH2 0x4D4 JUMPI PUSH1 0x40 MLOAD PUSH3 0x461BCD PUSH1 0xE5 SHL DUP2 MSTORE PUSH1 0x4 ADD PUSH2 0x332 SWAP1 PUSH2 0xC77 JUMP JUMPDEST PUSH2 0x4E8 PUSH2 0x4DF PUSH2 0x531 JUMP JUMPDEST DUP6 DUP6 DUP5 SUB PUSH2 0x535 JUMP JUMPDEST POP PUSH1 0x1 SWAP4 SWAP3 POP POP POP JUMP JUMPDEST PUSH1 0x0 PUSH2 0x2B2 PUSH2 0x4FF PUSH2 0x531 JUMP JUMPDEST DUP5 DUP5 PUSH2 0x5E9 JUMP JUMPDEST PUSH1 0x1 PUSH1 0x1 PUSH1 0xA0 SHL SUB SWAP2 DUP3 AND PUSH1 0x0 SWAP1 DUP2 MSTORE PUSH1 0x1 PUSH1 0x20 SWAP1 DUP2 MSTORE PUSH1 0x40 DUP1 DUP4 KECCAK256 SWAP4 SWAP1 SWAP5 AND DUP3 MSTORE SWAP2 SWAP1 SWAP2 MSTORE KECCAK256 SLOAD SWAP1 JUMP JUMPDEST CALLER SWAP1 JUMP JUMPDEST PUSH1 0x1 PUSH1 0x1 PUSH1 0xA0 SHL SUB DUP4 AND PUSH2 0x55B JUMPI PUSH1 0x40 MLOAD PUSH3 0x461BCD PUSH1 0xE5 SHL DUP2 MSTORE PUSH1 0x4 ADD PUSH2 0x332 SWAP1 PUSH2 0xC33 JUMP JUMPDEST PUSH1 0x1 PUSH1 0x1 PUSH1 0xA0 SHL SUB DUP3 AND PUSH2 0x581 JUMPI PUSH1 0x40 MLOAD PUSH3 0x461BCD PUSH1 0xE5 SHL DUP2 MSTORE PUSH1 0x4 ADD PUSH2 0x332 SWAP1 PUSH2 0xA99 JUMP JUMPDEST PUSH1 0x1 PUSH1 0x1 PUSH1 0xA0 SHL SUB DUP1 DUP5 AND PUSH1 0x0 DUP2 DUP2 MSTORE PUSH1 0x1 PUSH1 0x20 SWAP1 DUP2 MSTORE PUSH1 0x40 DUP1 DUP4 KECCAK256 SWAP5 DUP8 AND DUP1 DUP5 MSTORE SWAP5 SWAP1 SWAP2 MSTORE SWAP1 DUP2 SWAP1 KECCAK256 DUP5 SWAP1 SSTORE MLOAD PUSH32 0x8C5BE1E5EBEC7D5BD14F71427D1E84F3DD0314C0F7B2291E5B200AC8C7C3B925 SWAP1 PUSH2 0x5DC SWAP1 DUP6 SWAP1 PUSH2 0xCF3 JUMP JUMPDEST PUSH1 0x40 MLOAD DUP1 SWAP2 SUB SWAP1 LOG3 POP POP POP JUMP JUMPDEST PUSH1 0x1 PUSH1 0x1 PUSH1 0xA0 SHL SUB DUP4 AND PUSH2 0x60F JUMPI PUSH1 0x40 MLOAD PUSH3 0x461BCD PUSH1 0xE5 SHL DUP2 MSTORE PUSH1 0x4 ADD PUSH2 0x332 SWAP1 PUSH2 0xBEE JUMP JUMPDEST PUSH1 0x1 PUSH1 0x1 PUSH1 0xA0 SHL SUB DUP3 AND PUSH2 0x635 JUMPI PUSH1 0x40 MLOAD PUSH3 0x461BCD PUSH1 0xE5 SHL DUP2 MSTORE PUSH1 0x4 ADD PUSH2 0x332 SWAP1 PUSH2 0xA14 JUMP JUMPDEST PUSH2 0x640 DUP4 DUP4 DUP4 PUSH2 0x444 JUMP JUMPDEST PUSH1 0x1 PUSH1 0x1 PUSH1 0xA0 SHL SUB DUP4 AND PUSH1 0x0 SWAP1 DUP2 MSTORE PUSH1 0x20 DUP2 SWAP1 MSTORE PUSH1 0x40 SWAP1 KECCAK256 SLOAD DUP2 DUP2 LT ISZERO PUSH2 0x679 JUMPI PUSH1 0x40 MLOAD PUSH3 0x461BCD PUSH1 0xE5 SHL DUP2 MSTORE PUSH1 0x4 ADD PUSH2 0x332 SWAP1 PUSH2 0xADB JUMP JUMPDEST PUSH1 0x1 PUSH1 0x1 PUSH1 0xA0 SHL SUB DUP1 DUP6 AND PUSH1 0x0 SWAP1 DUP2 MSTORE PUSH1 0x20 DUP2 SWAP1 MSTORE PUSH1 0x40 DUP1 DUP3 KECCAK256 DUP6 DUP6 SUB SWAP1 SSTORE SWAP2 DUP6 AND DUP2 MSTORE SWAP1 DUP2 KECCAK256 DUP1 SLOAD DUP5 SWAP3 SWAP1 PUSH2 0x6B0 SWAP1 DUP5 SWAP1 PUSH2 0xD0A JUMP JUMPDEST SWAP3 POP POP DUP2 SWAP1 SSTORE POP DUP3 PUSH1 0x1 PUSH1 0x1 PUSH1 0xA0 SHL SUB AND DUP5 PUSH1 0x1 PUSH1 0x1 PUSH1 0xA0 SHL SUB AND PUSH32 0xDDF252AD1BE2C89B69C2B068FC378DAA952BA7F163C4A11628F55A4DF523B3EF DUP5 PUSH1 0x40 MLOAD PUSH2 0x6FA SWAP2 SWAP1 PUSH2 0xCF3 JUMP JUMPDEST PUSH1 0x40 MLOAD DUP1 SWAP2 SUB SWAP1 LOG3 PUSH2 0x70D DUP5 DUP5 DUP5 PUSH2 0x444 JUMP JUMPDEST POP POP POP POP JUMP JUMPDEST PUSH1 0x1 PUSH1 0x1 PUSH1 0xA0 SHL SUB DUP3 AND PUSH2 0x739 JUMPI PUSH1 0x40 MLOAD PUSH3 0x461BCD PUSH1 0xE5 SHL DUP2 MSTORE PUSH1 0x4 ADD PUSH2 0x332 SWAP1 PUSH2 0xBAD JUMP JUMPDEST PUSH2 0x745 DUP3 PUSH1 0x0 DUP4 PUSH2 0x444 JUMP JUMPDEST PUSH1 0x1 PUSH1 0x1 PUSH1 0xA0 SHL SUB DUP3 AND PUSH1 0x0 SWAP1 DUP2 MSTORE PUSH1 0x20 DUP2 SWAP1 MSTORE PUSH1 0x40 SWAP1 KECCAK256 SLOAD DUP2 DUP2 LT ISZERO PUSH2 0x77E JUMPI PUSH1 0x40 MLOAD PUSH3 0x461BCD PUSH1 0xE5 SHL DUP2 MSTORE PUSH1 0x4 ADD PUSH2 0x332 SWAP1 PUSH2 0xA57 JUMP JUMPDEST PUSH1 0x1 PUSH1 0x1 PUSH1 0xA0 SHL SUB DUP4 AND PUSH1 0x0 SWAP1 DUP2 MSTORE PUSH1 0x20 DUP2 SWAP1 MSTORE PUSH1 0x40 DUP2 KECCAK256 DUP4 DUP4 SUB SWAP1 SSTORE PUSH1 0x2 DUP1 SLOAD DUP5 SWAP3 SWAP1 PUSH2 0x7AD SWAP1 DUP5 SWAP1 PUSH2 0xD22 JUMP JUMPDEST SWAP1 SWAP2 SSTORE POP POP PUSH1 0x40 MLOAD PUSH1 0x0 SWAP1 PUSH1 0x1 PUSH1 0x1 PUSH1 0xA0 SHL SUB DUP6 AND SWAP1 PUSH32 0xDDF252AD1BE2C89B69C2B068FC378DAA952BA7F163C4A11628F55A4DF523B3EF SWAP1 PUSH2 0x7F0 SWAP1 DUP7 SWAP1 PUSH2 0xCF3 JUMP JUMPDEST PUSH1 0x40 MLOAD DUP1 SWAP2 SUB SWAP1 LOG3 PUSH2 0x444 DUP4 PUSH1 0x0 DUP5 PUSH2 0x444 JUMP JUMPDEST PUSH1 0x1 PUSH1 0x1 PUSH1 0xA0 SHL SUB DUP3 AND PUSH2 0x82A JUMPI PUSH1 0x40 MLOAD PUSH3 0x461BCD PUSH1 0xE5 SHL DUP2 MSTORE PUSH1 0x4 ADD PUSH2 0x332 SWAP1 PUSH2 0xCBC JUMP JUMPDEST PUSH2 0x836 PUSH1 0x0 DUP4 DUP4 PUSH2 0x444 JUMP JUMPDEST DUP1 PUSH1 0x2 PUSH1 0x0 DUP3 DUP3 SLOAD PUSH2 0x848 SWAP2 SWAP1 PUSH2 0xD0A JUMP JUMPDEST SWAP1 SWAP2 SSTORE POP POP PUSH1 0x1 PUSH1 0x1 PUSH1 0xA0 SHL SUB DUP3 AND PUSH1 0x0 SWAP1 DUP2 MSTORE PUSH1 0x20 DUP2 SWAP1 MSTORE PUSH1 0x40 DUP2 KECCAK256 DUP1 SLOAD DUP4 SWAP3 SWAP1 PUSH2 0x875 SWAP1 DUP5 SWAP1 PUSH2 0xD0A JUMP JUMPDEST SWAP1 SWAP2 SSTORE POP POP PUSH1 0x40 MLOAD PUSH1 0x1 PUSH1 0x1 PUSH1 0xA0 SHL SUB DUP4 AND SWAP1 PUSH1 0x0 SWAP1 PUSH32 0xDDF252AD1BE2C89B69C2B068FC378DAA952BA7F163C4A11628F55A4DF523B3EF SWAP1 PUSH2 0x8B8 SWAP1 DUP6 SWAP1 PUSH2 0xCF3 JUMP JUMPDEST PUSH1 0x40 MLOAD DUP1 SWAP2 SUB SWAP1 LOG3 PUSH2 0x8CC PUSH1 0x0 DUP4 DUP4 PUSH2 0x444 JUMP JUMPDEST POP POP JUMP JUMPDEST DUP1 CALLDATALOAD PUSH1 0x1 PUSH1 0x1 PUSH1 0xA0 SHL SUB DUP2 AND DUP2 EQ PUSH2 0x3F1 JUMPI PUSH1 0x0 DUP1 REVERT JUMPDEST PUSH1 0x0 PUSH1 0x20 DUP3 DUP5 SUB SLT ISZERO PUSH2 0x8F8 JUMPI DUP1 DUP2 REVERT JUMPDEST PUSH2 0x901 DUP3 PUSH2 0x8D0 JUMP JUMPDEST SWAP4 SWAP3 POP POP POP JUMP JUMPDEST PUSH1 0x0 DUP1 PUSH1 0x40 DUP4 DUP6 SUB SLT ISZERO PUSH2 0x91A JUMPI DUP1 DUP2 REVERT JUMPDEST PUSH2 0x923 DUP4 PUSH2 0x8D0 JUMP JUMPDEST SWAP2 POP PUSH2 0x931 PUSH1 0x20 DUP5 ADD PUSH2 0x8D0 JUMP JUMPDEST SWAP1 POP SWAP3 POP SWAP3 SWAP1 POP JUMP JUMPDEST PUSH1 0x0 DUP1 PUSH1 0x0 PUSH1 0x60 DUP5 DUP7 SUB SLT ISZERO PUSH2 0x94E JUMPI DUP1 DUP2 REVERT JUMPDEST PUSH2 0x957 DUP5 PUSH2 0x8D0 JUMP JUMPDEST SWAP3 POP PUSH2 0x965 PUSH1 0x20 DUP6 ADD PUSH2 0x8D0 JUMP JUMPDEST SWAP2 POP PUSH1 0x40 DUP5 ADD CALLDATALOAD SWAP1 POP SWAP3 POP SWAP3 POP SWAP3 JUMP JUMPDEST PUSH1 0x0 DUP1 PUSH1 0x40 DUP4 DUP6 SUB SLT ISZERO PUSH2 0x987 JUMPI DUP2 DUP3 REVERT JUMPDEST PUSH2 0x990 DUP4 PUSH2 0x8D0 JUMP JUMPDEST SWAP5 PUSH1 0x20 SWAP4 SWAP1 SWAP4 ADD CALLDATALOAD SWAP4 POP POP POP JUMP JUMPDEST PUSH1 0x0 PUSH1 0x20 DUP3 DUP5 SUB SLT ISZERO PUSH2 0x9AF JUMPI DUP1 DUP2 REVERT JUMPDEST POP CALLDATALOAD SWAP2 SWAP1 POP JUMP JUMPDEST SWAP1 ISZERO ISZERO DUP2 MSTORE PUSH1 0x20 ADD SWAP1 JUMP JUMPDEST PUSH1 0x0 PUSH1 0x20 DUP1 DUP4 MSTORE DUP4 MLOAD DUP1 DUP3 DUP6 ADD MSTORE DUP3 JUMPDEST DUP2 DUP2 LT ISZERO PUSH2 0x9ED JUMPI DUP6 DUP2 ADD DUP4 ADD MLOAD DUP6 DUP3 ADD PUSH1 0x40 ADD MSTORE DUP3 ADD PUSH2 0x9D1 JUMP JUMPDEST DUP2 DUP2 GT ISZERO PUSH2 0x9FE JUMPI DUP4 PUSH1 0x40 DUP4 DUP8 ADD ADD MSTORE JUMPDEST POP PUSH1 0x1F ADD PUSH1 0x1F NOT AND SWAP3 SWAP1 SWAP3 ADD PUSH1 0x40 ADD SWAP4 SWAP3 POP POP POP JUMP JUMPDEST PUSH1 0x20 DUP1 DUP3 MSTORE PUSH1 0x23 SWAP1 DUP3 ADD MSTORE PUSH32 0x45524332303A207472616E7366657220746F20746865207A65726F2061646472 PUSH1 0x40 DUP3 ADD MSTORE PUSH3 0x657373 PUSH1 0xE8 SHL PUSH1 0x60 DUP3 ADD MSTORE PUSH1 0x80 ADD SWAP1 JUMP JUMPDEST PUSH1 0x20 DUP1 DUP3 MSTORE PUSH1 0x22 SWAP1 DUP3 ADD MSTORE PUSH32 0x45524332303A206275726E20616D6F756E7420657863656564732062616C616E PUSH1 0x40 DUP3 ADD MSTORE PUSH2 0x6365 PUSH1 0xF0 SHL PUSH1 0x60 DUP3 ADD MSTORE PUSH1 0x80 ADD SWAP1 JUMP JUMPDEST PUSH1 0x20 DUP1 DUP3 MSTORE PUSH1 0x22 SWAP1 DUP3 ADD MSTORE PUSH32 0x45524332303A20617070726F766520746F20746865207A65726F206164647265 PUSH1 0x40 DUP3 ADD MSTORE PUSH2 0x7373 PUSH1 0xF0 SHL PUSH1 0x60 DUP3 ADD MSTORE PUSH1 0x80 ADD SWAP1 JUMP JUMPDEST PUSH1 0x20 DUP1 DUP3 MSTORE PUSH1 0x26 SWAP1 DUP3 ADD MSTORE PUSH32 0x45524332303A207472616E7366657220616D6F756E7420657863656564732062 PUSH1 0x40 DUP3 ADD MSTORE PUSH6 0x616C616E6365 PUSH1 0xD0 SHL PUSH1 0x60 DUP3 ADD MSTORE PUSH1 0x80 ADD SWAP1 JUMP JUMPDEST PUSH1 0x20 DUP1 DUP3 MSTORE PUSH1 0x28 SWAP1 DUP3 ADD MSTORE PUSH32 0x45524332303A207472616E7366657220616D6F756E7420657863656564732061 PUSH1 0x40 DUP3 ADD MSTORE PUSH8 0x6C6C6F77616E6365 PUSH1 0xC0 SHL PUSH1 0x60 DUP3 ADD MSTORE PUSH1 0x80 ADD SWAP1 JUMP JUMPDEST PUSH1 0x20 DUP1 DUP3 MSTORE PUSH1 0x24 SWAP1 DUP3 ADD MSTORE PUSH32 0x45524332303A206275726E20616D6F756E74206578636565647320616C6C6F77 PUSH1 0x40 DUP3 ADD MSTORE PUSH4 0x616E6365 PUSH1 0xE0 SHL PUSH1 0x60 DUP3 ADD MSTORE PUSH1 0x80 ADD SWAP1 JUMP JUMPDEST PUSH1 0x20 DUP1 DUP3 MSTORE PUSH1 0x21 SWAP1 DUP3 ADD MSTORE PUSH32 0x45524332303A206275726E2066726F6D20746865207A65726F20616464726573 PUSH1 0x40 DUP3 ADD MSTORE PUSH1 0x73 PUSH1 0xF8 SHL PUSH1 0x60 DUP3 ADD MSTORE PUSH1 0x80 ADD SWAP1 JUMP JUMPDEST PUSH1 0x20 DUP1 DUP3 MSTORE PUSH1 0x25 SWAP1 DUP3 ADD MSTORE PUSH32 0x45524332303A207472616E736665722066726F6D20746865207A65726F206164 PUSH1 0x40 DUP3 ADD MSTORE PUSH5 0x6472657373 PUSH1 0xD8 SHL PUSH1 0x60 DUP3 ADD MSTORE PUSH1 0x80 ADD SWAP1 JUMP JUMPDEST PUSH1 0x20 DUP1 DUP3 MSTORE PUSH1 0x24 SWAP1 DUP3 ADD MSTORE PUSH32 0x45524332303A20617070726F76652066726F6D20746865207A65726F20616464 PUSH1 0x40 DUP3 ADD MSTORE PUSH4 0x72657373 PUSH1 0xE0 SHL PUSH1 0x60 DUP3 ADD MSTORE PUSH1 0x80 ADD SWAP1 JUMP JUMPDEST PUSH1 0x20 DUP1 DUP3 MSTORE PUSH1 0x25 SWAP1 DUP3 ADD MSTORE PUSH32 0x45524332303A2064656372656173656420616C6C6F77616E63652062656C6F77 PUSH1 0x40 DUP3 ADD MSTORE PUSH5 0x207A65726F PUSH1 0xD8 SHL PUSH1 0x60 DUP3 ADD MSTORE PUSH1 0x80 ADD SWAP1 JUMP JUMPDEST PUSH1 0x20 DUP1 DUP3 MSTORE PUSH1 0x1F SWAP1 DUP3 ADD MSTORE PUSH32 0x45524332303A206D696E7420746F20746865207A65726F206164647265737300 PUSH1 0x40 DUP3 ADD MSTORE PUSH1 0x60 ADD SWAP1 JUMP JUMPDEST SWAP1 DUP2 MSTORE PUSH1 0x20 ADD SWAP1 JUMP JUMPDEST PUSH1 0xFF SWAP2 SWAP1 SWAP2 AND DUP2 MSTORE PUSH1 0x20 ADD SWAP1 JUMP JUMPDEST PUSH1 0x0 DUP3 NOT DUP3 GT ISZERO PUSH2 0xD1D JUMPI PUSH2 0xD1D PUSH2 0xD74 JUMP JUMPDEST POP ADD SWAP1 JUMP JUMPDEST PUSH1 0x0 DUP3 DUP3 LT ISZERO PUSH2 0xD34 JUMPI PUSH2 0xD34 PUSH2 0xD74 JUMP JUMPDEST POP SUB SWAP1 JUMP JUMPDEST PUSH1 0x2 DUP2 DIV PUSH1 0x1 DUP3 AND DUP1 PUSH2 0xD4D JUMPI PUSH1 0x7F DUP3 AND SWAP2 POP JUMPDEST PUSH1 0x20 DUP3 LT DUP2 EQ ISZERO PUSH2 0xD6E JUMPI PUSH4 0x4E487B71 PUSH1 0xE0 SHL PUSH1 0x0 MSTORE PUSH1 0x22 PUSH1 0x4 MSTORE PUSH1 0x24 PUSH1 0x0 REVERT JUMPDEST POP SWAP2 SWAP1 POP JUMP JUMPDEST PUSH4 0x4E487B71 PUSH1 0xE0 SHL PUSH1 0x0 MSTORE PUSH1 0x11 PUSH1 0x4 MSTORE PUSH1 0x24 PUSH1 0x0 REVERT INVALID LOG2 PUSH5 0x6970667358 0x22 SLT KECCAK256 0xD7 EXTCODEHASH 0x2D PUSH9 0x6FDA5AED987997FB8E LOG0 NUMBER LOG3 POP 0xB9 0xB5 0x48 0xD3 0xDC 0xCA 0xAD PUSH23 0x1B346A895C82C064736F6C63430008000033A264697066 PUSH20 0x582212206A13EAFA35FF36F18B0E320752590CD6 REVERT RETURN 0xEB BLOCKHASH DUP5 0xDB 0x22 0x1F EXTCODESIZE NOT DUP7 0xC2 DUP15 0xB3 PUSH3 0xCA6473 PUSH16 0x6C634300080000330000000000000000 ","sha1":"1f32f6a970da4c35cce11a765d02bd6e49f7aa8d","source":"// SPDX-License-Identifier: UNLICENSED\npragma solidity ^0.8.0;\n\nimport {ERC20} from \"@openzeppelin/contracts/token/ERC20/ERC20.sol\";\nimport  {ERC20Burnable} from \"@openzeppelin/contracts/token/ERC20/extensions/ERC20Burnable.sol\";\nimport \"@openzeppelin/contracts/utils/math/SafeMath.sol\";\nimport \"@openzeppelin/contracts/access/Ownable.sol\";\n\n\ninterface IERC20 {\n    function transfer(address recipient, uint256 amount) external returns (bool);\n    function transferFrom(address sender, address recipient, uint256 amount) external returns (bool);\n    function approve(address spender, uint256 amount) external returns (bool);\n}\n\n\ncontract LpSimpleSwap is ERC20, ERC20Burnable {\n    address parentAddress;\n\n   constructor(address _parentAddress) ERC20(\"Lp Simple Swap\", \"LpSimpleSwap\")  {\n        parentAddress = _parentAddress;\n    }\n\n    function mint(uint256 quantity) public onlyParent {\n        _mint(tx.origin, quantity);\n    }\n\n    function burn(uint256 quantity) public override onlyParent {\n        burnFrom(tx.origin, quantity);\n    }\n\n    function decimals() public view override returns (uint8) {\n        return 6;\n    }\n\n    modifier onlyParent {\n        require(msg.sender == parentAddress);\n        _;\n    }\n}\n\n\ncontract SimpleSwap is Ownable{\n    using SafeMath for uint256;\n\n    enum Token{Link, USDC}\n\n    address addressLink = 0xa36085F69e2889c224210F603D836748e7dC0088;   //Kovan address      //0x01BE23585060835E02B77ef475b0Cc51aA1e0709; rinkeby\n    address addressUSDC = 0xb7a4F3E9097C08dA09517b5aB877F7a917224ede;    //Kovan address            //0xeb8f08a975Ab53E34D8a0330E0D34de942C95926; rinkeby\n\n    uint256 public totalAvailableLink = 0;      //18 decimals\n    uint256 public totalAvailableUSDC = 0;      //6 decimals\n\n    uint256  public totalLpTokens = 0;           //6 decimals\n\n    uint256 public FEE = 3 * 10 ** 3;         //6 decimals\n\n    bool isPoolInitialized = false;\n\n    LpSimpleSwap lpTokens;\n\n    function initiatePool(uint256 amountLinkToSupply, uint256 amountUsdcToSupply) public onlyOwner {\n        require(!isPoolInitialized, \"The pool was already initialized\");\n\n        lpTokens = new LpSimpleSwap(address(this));\n\n        IERC20 Link = IERC20(addressLink);\n        IERC20 USDC = IERC20(addressUSDC);\n\n        require(Link.transferFrom(msg.sender, address(this), amountLinkToSupply), \"Link amount unavailable.\");\n        require(USDC.transferFrom(msg.sender, address(this), amountUsdcToSupply), \"USDC amount unavailable.\");\n\n        totalAvailableLink = totalAvailableLink.add(amountLinkToSupply);\n        totalAvailableUSDC = totalAvailableUSDC.add(amountUsdcToSupply);\n\n        totalLpTokens = amountUsdcToSupply;\n        lpTokens.mint(totalLpTokens);\n\n        isPoolInitialized = true;\n    }\n\n    function swap(uint256 quantitySoldToken, uint256 minAmountPurchasedToken, Token tokenForSale) public onlyAfterInitialization {\n        require(isPoolInitialized, \"The pool should be initialized first.\");\n        require(quantitySoldToken > 0, \"The amount to sell should be strictly bigger than 0.\");\n        uint256 amountPurchasedToken = getAmountPurchasedToken(quantitySoldToken, tokenForSale);\n        require(amountPurchasedToken >= minAmountPurchasedToken, \"The amount of purchased token is lower than required.\");\n\n        IERC20 soldToken;\n        IERC20 boughtToken;\n\n        if (tokenForSale == Token.Link) {\n            totalAvailableLink  = totalAvailableLink.add(quantitySoldToken);\n            totalAvailableUSDC = totalAvailableUSDC.sub(amountPurchasedToken);\n\n            soldToken = IERC20(addressLink);\n            boughtToken = IERC20(addressUSDC);\n        }\n\n        else {\n            totalAvailableLink = totalAvailableLink.sub(amountPurchasedToken);\n            totalAvailableUSDC = totalAvailableUSDC.add(quantitySoldToken);\n\n            soldToken = IERC20(addressUSDC); \n            boughtToken = IERC20(addressLink);\n        }\n\n        assert(boughtToken.transfer(msg.sender, amountPurchasedToken));\n        require(soldToken.transferFrom(msg.sender, address(this), quantitySoldToken), \"Transfer of the amount of token you want to sell failed.\");\n    }\n\n    function supply(uint256 amountLpTokens) public onlyAfterInitialization {\n        require(isPoolInitialized, \"The pool should be initialized first.\");\n        require(amountLpTokens > 0, \"The amount of supplied lp tokens should be > 0.\");\n        (uint256 amountLinkPerLpToken, uint256 amountUsdcPerLpToken) = getLpTokenPrice();\n\n        IERC20 Link = IERC20(addressLink);\n        IERC20 USDC = IERC20(addressUSDC);\n\n        uint256 amountLinkToSupply = amountLinkPerLpToken.mul(amountLpTokens).div(10 ** 6); // 18 decimals\n        uint256 amountUSDCToSupply = amountUsdcPerLpToken.mul(amountLpTokens).div(10 ** 6); // 6 decimals\n\n        totalAvailableLink = totalAvailableLink.add(amountLinkToSupply);\n        totalAvailableUSDC = totalAvailableUSDC.add(amountUSDCToSupply);\n\n        totalLpTokens = totalLpTokens.add(amountLpTokens);\n\n        lpTokens.mint(amountLpTokens);\n\n        require(Link.transferFrom(msg.sender, address(this), amountLinkToSupply), \"Link amount unavailable.\");\n        require(USDC.transferFrom(msg.sender, address(this), amountUSDCToSupply), \"USDC amount unavailable.\");\n    }\n\n    function withdraw(uint256 amountLpTokens) public onlyAfterInitialization {\n        require(isPoolInitialized, \"The pool should be initialized first.\");\n        require(amountLpTokens > 0, \"The amount of requested lp tokens should be > 0.\");\n        require(lpTokens.balanceOf(msg.sender) >= amountLpTokens, \"You don't have enough LP tokens.\");\n        \n        (uint256 amountLinkPerLpToken, uint256 amountUSDCPerLpToken)  = getLpTokenPrice();\n\n        uint256 amountLinkToWithdraw = amountLinkPerLpToken.mul(amountLpTokens).div(10 ** 6);\n        uint256 amountUSDCToWithdraw = amountUSDCPerLpToken.mul(amountLpTokens).div(10 ** 6);\n\n        totalAvailableLink = totalAvailableLink.sub(amountLinkToWithdraw);\n        totalAvailableUSDC = totalAvailableUSDC.sub(amountUSDCToWithdraw);\n\n        totalLpTokens = totalLpTokens.sub(amountLpTokens);\n\n        lpTokens.burn(amountLpTokens);\n\n        IERC20 Link = IERC20(addressLink);\n        IERC20 USDC = IERC20(addressUSDC);\n\n        assert(Link.transfer(msg.sender, amountLinkToWithdraw));\n        assert(USDC.transfer(msg.sender, amountUSDCToWithdraw));\n    }\n//////////////////////////////////////////////////////////////////////////////////////////////////////////////////////////////////////////////////\n    // Link - USDC                      // 6 decimals\n    function getAmountPurchasedToken(uint256 amountSoldTokens, Token tokenForSale) internal view returns(uint256)\n    {\n        uint256 y = (tokenForSale == Token.Link) ? totalAvailableUSDC : totalAvailableLink;\n        uint256 x = (tokenForSale == Token.Link) ? totalAvailableLink : totalAvailableUSDC;\n\n        uint256 C = totalAvailableUSDC.mul(totalAvailableLink);         // 24 decimals\n        uint256 amountPurchasedTokens = y.sub(C.div(x.add(amountSoldTokens))); // 6 or 18 decimals\n\n        return amountPurchasedTokens.mul(10 ** 6 - FEE).div(10 ** 6);\n    }\n\n    function getLpTokenPrice() public view returns(uint256, uint256) \n    {\n        return (totalAvailableLink.mul(10 ** 6).div(totalLpTokens), totalAvailableUSDC.mul(10 ** 6).div(totalLpTokens));\n    }\n\n\n    modifier onlyAfterInitialization {\n        require(isPoolInitialized, \"The pool should be initialized first.\");\n        _;\n    }\n}\n\n\n","sourcePath":"contracts/SimpleSwap.sol","type":"contract","deployment":{"address":"0xE457c2808c259Ba6385d1b2FB778b7C2e031f724","chainid":"42","blockHeight":32774275}}