{"abi":[{"anonymous":false,"inputs":[{"indexed":true,"internalType":"address","name":"previousOwner","type":"address"},{"indexed":true,"internalType":"address","name":"newOwner","type":"address"}],"name":"OwnershipTransferred","type":"event"},{"inputs":[],"name":"FEE","outputs":[{"internalType":"uint256","name":"","type":"uint256"}],"stateMutability":"view","type":"function"},{"inputs":[],"name":"getLpTokenPrice","outputs":[{"internalType":"uint256","name":"","type":"uint256"},{"internalType":"uint256","name":"","type":"uint256"}],"stateMutability":"view","type":"function"},{"inputs":[{"internalType":"uint256","name":"amountLinkToSupply","type":"uint256"},{"internalType":"uint256","name":"amountUsdcToSupply","type":"uint256"}],"name":"initiatePool","outputs":[],"stateMutability":"nonpayable","type":"function"},{"inputs":[],"name":"owner","outputs":[{"internalType":"address","name":"","type":"address"}],"stateMutability":"view","type":"function"},{"inputs":[],"name":"renounceOwnership","outputs":[],"stateMutability":"nonpayable","type":"function"},{"inputs":[{"internalType":"uint256","name":"amountLpTokens","type":"uint256"}],"name":"supply","outputs":[],"stateMutability":"nonpayable","type":"function"},{"inputs":[{"internalType":"uint256","name":"quantitySoldToken","type":"uint256"},{"internalType":"uint256","name":"minAmountPurchasedToken","type":"uint256"},{"internalType":"enum SimpleSwap.Tokens","name":"tokenForSale","type":"uint8"}],"name":"swap","outputs":[],"stateMutability":"nonpayable","type":"function"},{"inputs":[],"name":"totalAvailableLink","outputs":[{"internalType":"uint256","name":"","type":"uint256"}],"stateMutability":"view","type":"function"},{"inputs":[],"name":"totalAvailableUSDC","outputs":[{"internalType":"uint256","name":"","type":"uint256"}],"stateMutability":"view","type":"function"},{"inputs":[],"name":"totalLpTokens","outputs":[{"internalType":"uint256","name":"","type":"uint256"}],"stateMutability":"view","type":"function"},{"inputs":[{"internalType":"address","name":"newOwner","type":"address"}],"name":"transferOwnership","outputs":[],"stateMutability":"nonpayable","type":"function"},{"inputs":[{"internalType":"uint256","name":"amountLpTokens","type":"uint256"}],"name":"withdraw","outputs":[],"stateMutability":"nonpayable","type":"function"}],"bytecode":"60806040819052600180546001600160a01b031990811673a36085f69e2889c224210f603d836748e7dc0088179091556002805490911673b7a4f3e9097c08da09517b5ab877f7a917224ede179055600060038190556004819055600555610bb86006556007805460ff191690556100769061012f565b604051809103906000f080158015610092573d6000803e3d6000fd5b50600760016101000a8154816001600160a01b0302191690836001600160a01b031602179055503480156100c557600080fd5b506100d66100d16100db565b6100df565b61013c565b3390565b600080546001600160a01b038381166001600160a01b0319831681178455604051919092169283917f8be0079c531659141344cd1fd0a4f28419497f9722a3daafe3b4186f6b6457e09190a35050565b610e4c8061139083390190565b6112458061014b6000396000f3fe608060405234801561001057600080fd5b50600436106100b45760003560e01c8063868c844f11610071578063868c844f146101305780638da5cb5b14610138578063b2e411c21461014d578063c57981b514610155578063ce49ea9a1461015d578063f2fde38b14610170576100b4565b80632e1a7d4d146100b957806335403023146100ce5780635c36d25e146100e1578063618e552c146100f45780636f5cdb6c14610112578063715018a614610128575b600080fd5b6100cc6100c7366004610dd4565b610183565b005b6100cc6100dc366004610dd4565b610495565b6100cc6100ef366004610e25565b61068a565b6100fc6108b6565b6040516101099190611174565b60405180910390f35b61011a6108bc565b60405161010992919061117d565b6100cc610903565b6100fc61094e565b610140610954565b6040516101099190610e60565b6100fc610963565b6100fc610969565b6100cc61016b366004610e04565b61096f565b6100cc61017e366004610d8d565b610bba565b60075460ff166101ae5760405162461bcd60e51b81526004016101a590611020565b60405180910390fd5b600081116101ce5760405162461bcd60e51b81526004016101a590611063565b6007546040516370a0823160e01b8152829161010090046001600160a01b0316906370a0823190610203903390600401610e60565b60206040518083038186803b15801561021b57600080fd5b505afa15801561022f573d6000803e3d6000fd5b505050506040513d601f19601f820116820180604052508101906102539190610dec565b10156102715760405162461bcd60e51b81526004016101a590610feb565b60008061027c6108bc565b9092509050600061029a620f42406102948587610c2b565b90610c3e565b905060006102af620f42406102948588610c2b565b6003549091506102bf9083610c4a565b6003556004546102cf9082610c4a565b6004556005546102df9086610c4a565b600555600754604051630852cd8d60e31b81526101009091046001600160a01b0316906342966c6890610316908890600401611174565b600060405180830381600087803b15801561033057600080fd5b505af1158015610344573d6000803e3d6000fd5b505060015460025460405163a9059cbb60e01b81526001600160a01b03928316945091169150829063a9059cbb906103829033908890600401610e98565b602060405180830381600087803b15801561039c57600080fd5b505af11580156103b0573d6000803e3d6000fd5b505050506040513d601f19601f820116820180604052508101906103d49190610db4565b6103f05760405162461bcd60e51b81526004016101a590610fb4565b60405163a9059cbb60e01b81526001600160a01b0382169063a9059cbb9061041e9033908790600401610e98565b602060405180830381600087803b15801561043857600080fd5b505af115801561044c573d6000803e3d6000fd5b505050506040513d601f19601f820116820180604052508101906104709190610db4565b61048c5760405162461bcd60e51b81526004016101a590610f7d565b50505050505050565b60075460ff166104b75760405162461bcd60e51b81526004016101a590611020565b600081116104d75760405162461bcd60e51b81526004016101a590610f2e565b6000806104e26108bc565b6001546002549294509092506001600160a01b039081169116600061050e620f42406102948789610c2b565b90506000610523620f4240610294878a610c2b565b6003549091506105339083610c56565b6003556004546105439082610c56565b6004556005546105539088610c56565b60055560075460405163140e25ad60e31b81526101009091046001600160a01b03169063a0712d689061058a908a90600401611174565b600060405180830381600087803b1580156105a457600080fd5b505af11580156105b8573d6000803e3d6000fd5b50506040516323b872dd60e01b81526001600160a01b03871692506323b872dd91506105ec90339030908790600401610e74565b602060405180830381600087803b15801561060657600080fd5b505af115801561061a573d6000803e3d6000fd5b505050506040513d601f19601f8201168201806040525081019061063e9190610db4565b61065a5760405162461bcd60e51b81526004016101a590610fb4565b6040516323b872dd60e01b81526001600160a01b038416906323b872dd9061041e90339030908690600401610e74565b60075460ff166106ac5760405162461bcd60e51b81526004016101a590611020565b60006106b88483610c62565b9050828110156106da5760405162461bcd60e51b81526004016101a59061111f565b600080808460018111156106fe57634e487b7160e01b600052602160045260246000fd5b141561073e576003546107119087610c56565b6003556004546107219084610c4a565b60045550506001546002546001600160a01b039182169116610774565b60035461074b9084610c4a565b60035560045461075b9087610c56565b60045550506002546001546001600160a01b0391821691165b60405163a9059cbb60e01b81526001600160a01b0382169063a9059cbb906107a29033908790600401610e98565b602060405180830381600087803b1580156107bc57600080fd5b505af11580156107d0573d6000803e3d6000fd5b505050506040513d601f19601f820116820180604052508101906107f49190610db4565b6108105760405162461bcd60e51b81526004016101a5906110e8565b6040516323b872dd60e01b81526001600160a01b038316906323b872dd9061084090339030908b90600401610e74565b602060405180830381600087803b15801561085a57600080fd5b505af115801561086e573d6000803e3d6000fd5b505050506040513d601f19601f820116820180604052508101906108929190610db4565b6108ae5760405162461bcd60e51b81526004016101a5906110e8565b505050505050565b60035481565b6000806108dd600554610294620f4240600354610c2b90919063ffffffff16565b6108fb600554610294620f4240600454610c2b90919063ffffffff16565b915091509091565b61090b610d39565b6001600160a01b031661091c610954565b6001600160a01b0316146109425760405162461bcd60e51b81526004016101a5906110b3565b61094c6000610d3d565b565b60055481565b6000546001600160a01b031690565b60045481565b60065481565b610977610d39565b6001600160a01b0316610988610954565b6001600160a01b0316146109ae5760405162461bcd60e51b81526004016101a5906110b3565b60075460ff16156109d15760405162461bcd60e51b81526004016101a590610ef7565b6007805460ff19166001908117909155546002546040516323b872dd60e01b81526001600160a01b0392831692919091169082906323b872dd90610a1d90339030908990600401610e74565b602060405180830381600087803b158015610a3757600080fd5b505af1158015610a4b573d6000803e3d6000fd5b505050506040513d601f19601f82011682018060405250810190610a6f9190610db4565b610a8b5760405162461bcd60e51b81526004016101a590610fb4565b6040516323b872dd60e01b81526001600160a01b038216906323b872dd90610abb90339030908890600401610e74565b602060405180830381600087803b158015610ad557600080fd5b505af1158015610ae9573d6000803e3d6000fd5b505050506040513d601f19601f82011682018060405250810190610b0d9190610db4565b610b295760405162461bcd60e51b81526004016101a590610f7d565b600354610b369085610c56565b600355600454610b469084610c56565b6004908155600584905560075460405163140e25ad60e31b81526101009091046001600160a01b03169163a0712d6891610b8291879101611174565b600060405180830381600087803b158015610b9c57600080fd5b505af1158015610bb0573d6000803e3d6000fd5b5050505050505050565b610bc2610d39565b6001600160a01b0316610bd3610954565b6001600160a01b031614610bf95760405162461bcd60e51b81526004016101a5906110b3565b6001600160a01b038116610c1f5760405162461bcd60e51b81526004016101a590610eb1565b610c2881610d3d565b50565b6000610c3782846111c3565b9392505050565b6000610c3782846111a3565b6000610c3782846111e2565b6000610c37828461118b565b60008080836001811115610c8657634e487b7160e01b600052602160045260246000fd5b14610c9357600354610c97565b6004545b9050600080846001811115610cbc57634e487b7160e01b600052602160045260246000fd5b14610cc957600454610ccd565b6003545b90506000600354600454610ce191906111c3565b90506000610d03610cfc610cf5898661118b565b8490610c3e565b8590610c4a565b9050620f4240600654620f4240610d1a91906111e2565b610d2490836111c3565b610d2e91906111a3565b979650505050505050565b3390565b600080546001600160a01b038381166001600160a01b0319831681178455604051919092169283917f8be0079c531659141344cd1fd0a4f28419497f9722a3daafe3b4186f6b6457e09190a35050565b600060208284031215610d9e578081fd5b81356001600160a01b0381168114610c37578182fd5b600060208284031215610dc5578081fd5b81518015158114610c37578182fd5b600060208284031215610de5578081fd5b5035919050565b600060208284031215610dfd578081fd5b5051919050565b60008060408385031215610e16578081fd5b50508035926020909101359150565b600080600060608486031215610e39578081fd5b8335925060208401359150604084013560028110610e55578182fd5b809150509250925092565b6001600160a01b0391909116815260200190565b6001600160a01b039384168152919092166020820152604081019190915260600190565b6001600160a01b03929092168252602082015260400190565b60208082526026908201527f4f776e61626c653a206e6577206f776e657220697320746865207a65726f206160408201526564647265737360d01b606082015260800190565b6020808252601e908201527f54686520706f6f6c2077617320616c726561647920696e697469617465640000604082015260600190565b6020808252602f908201527f54686520616d6f756e74206f6620737570706c696564206c7020746f6b656e7360408201526e1039b437bab632103132901f10181760891b606082015260800190565b60208082526018908201527f5553444320616d6f756e7420756e617661696c61626c652e0000000000000000604082015260600190565b60208082526018908201527f4c696e6b20616d6f756e7420756e617661696c61626c652e0000000000000000604082015260600190565b6020808252818101527f596f7520646f6e2774206861766520656e6f756768204c5020746f6b656e732e604082015260600190565b60208082526023908201527f54686520706f6f6c2073686f756c6420626520696e697469617465642066697260408201526239ba1760e91b606082015260800190565b60208082526030908201527f54686520616d6f756e74206f6620726571756573746564206c7020746f6b656e60408201526f399039b437bab632103132901f10181760811b606082015260800190565b6020808252818101527f4f776e61626c653a2063616c6c6572206973206e6f7420746865206f776e6572604082015260600190565b60208082526019908201527f546f6b656e20616d6f756e7420756e617661696c61626c652e00000000000000604082015260600190565b60208082526035908201527f54686520616d6f756e74206f662070757263686173656420746f6b656e206973604082015274103637bbb2b9103a3430b7103932b8bab4b932b21760591b606082015260800190565b90815260200190565b918252602082015260400190565b6000821982111561119e5761119e6111f9565b500190565b6000826111be57634e487b7160e01b81526012600452602481fd5b500490565b60008160001904831182151516156111dd576111dd6111f9565b500290565b6000828210156111f4576111f46111f9565b500390565b634e487b7160e01b600052601160045260246000fdfea26469706673582212206059d23927c0dd72795aaee76626fbdac3422b52a18d9ec7d1b3d98c9905eed864736f6c6343000800003360806040523480156200001157600080fd5b50604080518082018252600e81526d04c702053696d706c6520537761760941b60208083019182528351808501909452600c84526b04c7053696d706c65537761760a41b9084015281519192916200006c916003916200008b565b508051620000829060049060208401906200008b565b5050506200016e565b828054620000999062000131565b90600052602060002090601f016020900481019282620000bd576000855562000108565b82601f10620000d857805160ff191683800117855562000108565b8280016001018555821562000108579182015b8281111562000108578251825591602001919060010190620000eb565b50620001169291506200011a565b5090565b5b808211156200011657600081556001016200011b565b6002810460018216806200014657607f821691505b602082108114156200016857634e487b7160e01b600052602260045260246000fd5b50919050565b610cce806200017e6000396000f3fe608060405234801561001057600080fd5b50600436106100cf5760003560e01c806342966c681161008c578063a0712d6811610066578063a0712d6814610192578063a457c2d7146101a5578063a9059cbb146101b8578063dd62ed3e146101cb576100cf565b806342966c681461016257806370a082311461017757806395d89b411461018a576100cf565b806306fdde03146100d4578063095ea7b3146100f257806318160ddd1461011257806323b872dd14610127578063313ce5671461013a578063395093511461014f575b600080fd5b6100dc6101de565b6040516100e99190610913565b60405180910390f35b6101056101003660046108c7565b610270565b6040516100e99190610908565b61011a61028d565b6040516100e99190610c01565b61010561013536600461088c565b610293565b61014261032c565b6040516100e99190610c0a565b61010561015d3660046108c7565b610331565b6101756101703660046108f0565b610385565b005b61011a610185366004610839565b610392565b6100dc6103b1565b6101756101a03660046108f0565b6103c0565b6101056101b33660046108c7565b6103ca565b6101056101c63660046108c7565b610443565b61011a6101d936600461085a565b610457565b6060600380546101ed90610c47565b80601f016020809104026020016040519081016040528092919081815260200182805461021990610c47565b80156102665780601f1061023b57610100808354040283529160200191610266565b820191906000526020600020905b81548152906001019060200180831161024957829003601f168201915b5050505050905090565b600061028461027d610482565b8484610486565b50600192915050565b60025490565b60006102a084848461053a565b6001600160a01b0384166000908152600160205260408120816102c1610482565b6001600160a01b03166001600160a01b031681526020019081526020016000205490508281101561030d5760405162461bcd60e51b815260040161030490610a73565b60405180910390fd5b61032185610319610482565b858403610486565b506001949350505050565b600690565b600061028461033e610482565b84846001600061034c610482565b6001600160a01b03908116825260208083019390935260409182016000908120918b16815292529020546103809190610c18565b610486565b61038f3282610664565b50565b6001600160a01b0381166000908152602081905260409020545b919050565b6060600480546101ed90610c47565b61038f3282610756565b600080600160006103d9610482565b6001600160a01b03908116825260208083019390935260409182016000908120918816815292529020549050828110156104255760405162461bcd60e51b815260040161030490610b85565b610439610430610482565b85858403610486565b5060019392505050565b6000610284610450610482565b848461053a565b6001600160a01b03918216600090815260016020908152604080832093909416825291909152205490565b3390565b6001600160a01b0383166104ac5760405162461bcd60e51b815260040161030490610b41565b6001600160a01b0382166104d25760405162461bcd60e51b8152600401610304906109eb565b6001600160a01b0380841660008181526001602090815260408083209487168084529490915290819020849055517f8c5be1e5ebec7d5bd14f71427d1e84f3dd0314c0f7b2291e5b200ac8c7c3b9259061052d908590610c01565b60405180910390a3505050565b6001600160a01b0383166105605760405162461bcd60e51b815260040161030490610afc565b6001600160a01b0382166105865760405162461bcd60e51b815260040161030490610966565b610591838383610751565b6001600160a01b038316600090815260208190526040902054818110156105ca5760405162461bcd60e51b815260040161030490610a2d565b6001600160a01b03808516600090815260208190526040808220858503905591851681529081208054849290610601908490610c18565b92505081905550826001600160a01b0316846001600160a01b03167fddf252ad1be2c89b69c2b068fc378daa952ba7f163c4a11628f55a4df523b3ef8460405161064b9190610c01565b60405180910390a361065e848484610751565b50505050565b6001600160a01b03821661068a5760405162461bcd60e51b815260040161030490610abb565b61069682600083610751565b6001600160a01b038216600090815260208190526040902054818110156106cf5760405162461bcd60e51b8152600401610304906109a9565b6001600160a01b03831660009081526020819052604081208383039055600280548492906106fe908490610c30565b90915550506040516000906001600160a01b038516907fddf252ad1be2c89b69c2b068fc378daa952ba7f163c4a11628f55a4df523b3ef90610741908690610c01565b60405180910390a3610751836000845b505050565b6001600160a01b03821661077c5760405162461bcd60e51b815260040161030490610bca565b61078860008383610751565b806002600082825461079a9190610c18565b90915550506001600160a01b038216600090815260208190526040812080548392906107c7908490610c18565b90915550506040516001600160a01b038316906000907fddf252ad1be2c89b69c2b068fc378daa952ba7f163c4a11628f55a4df523b3ef9061080a908590610c01565b60405180910390a361081e60008383610751565b5050565b80356001600160a01b03811681146103ac57600080fd5b60006020828403121561084a578081fd5b61085382610822565b9392505050565b6000806040838503121561086c578081fd5b61087583610822565b915061088360208401610822565b90509250929050565b6000806000606084860312156108a0578081fd5b6108a984610822565b92506108b760208501610822565b9150604084013590509250925092565b600080604083850312156108d9578182fd5b6108e283610822565b946020939093013593505050565b600060208284031215610901578081fd5b5035919050565b901515815260200190565b6000602080835283518082850152825b8181101561093f57858101830151858201604001528201610923565b818111156109505783604083870101525b50601f01601f1916929092016040019392505050565b60208082526023908201527f45524332303a207472616e7366657220746f20746865207a65726f206164647260408201526265737360e81b606082015260800190565b60208082526022908201527f45524332303a206275726e20616d6f756e7420657863656564732062616c616e604082015261636560f01b606082015260800190565b60208082526022908201527f45524332303a20617070726f766520746f20746865207a65726f206164647265604082015261737360f01b606082015260800190565b60208082526026908201527f45524332303a207472616e7366657220616d6f756e7420657863656564732062604082015265616c616e636560d01b606082015260800190565b60208082526028908201527f45524332303a207472616e7366657220616d6f756e74206578636565647320616040820152676c6c6f77616e636560c01b606082015260800190565b60208082526021908201527f45524332303a206275726e2066726f6d20746865207a65726f206164647265736040820152607360f81b606082015260800190565b60208082526025908201527f45524332303a207472616e736665722066726f6d20746865207a65726f206164604082015264647265737360d81b606082015260800190565b60208082526024908201527f45524332303a20617070726f76652066726f6d20746865207a65726f206164646040820152637265737360e01b606082015260800190565b60208082526025908201527f45524332303a2064656372656173656420616c6c6f77616e63652062656c6f77604082015264207a65726f60d81b606082015260800190565b6020808252601f908201527f45524332303a206d696e7420746f20746865207a65726f206164647265737300604082015260600190565b90815260200190565b60ff91909116815260200190565b60008219821115610c2b57610c2b610c82565b500190565b600082821015610c4257610c42610c82565b500390565b600281046001821680610c5b57607f821691505b60208210811415610c7c57634e487b7160e01b600052602260045260246000fd5b50919050565b634e487b7160e01b600052601160045260246000fdfea2646970667358221220c5694ed8cbc49fdb3d1d93a1f165c45f2723d5c19811ff3fcf2ccff8aceae39064736f6c63430008000033","bytecodeSha1":"3fcfee6e6bace475c14b725c61488c6b53a40994","compiler":{"evm_version":"istanbul","optimizer":{"enabled":true,"runs":200},"version":"0.8.0+commit.c7dfd78e"},"contractName":"SimpleSwap","language":"Solidity","natspec":{"kind":"dev","methods":{"owner()":{"details":"Returns the address of the current owner."},"renounceOwnership()":{"details":"Leaves the contract without owner. It will not be possible to call `onlyOwner` functions anymore. Can only be called by the current owner. NOTE: Renouncing ownership will leave the contract without an owner, thereby removing any functionality that is only available to the owner."},"transferOwnership(address)":{"details":"Transfers ownership of the contract to a new account (`newOwner`). Can only be called by the current owner."}},"version":1},"opcodes":"PUSH1 0x80 PUSH1 0x40 MSTORE CALLVALUE DUP1 ISZERO PUSH2 0x10 JUMPI PUSH1 0x0 DUP1 REVERT JUMPDEST POP PUSH1 0x4 CALLDATASIZE LT PUSH2 0xB4 JUMPI PUSH1 0x0 CALLDATALOAD PUSH1 0xE0 SHR DUP1 PUSH4 0x868C844F GT PUSH2 0x71 JUMPI DUP1 PUSH4 0x868C844F EQ PUSH2 0x130 JUMPI DUP1 PUSH4 0x8DA5CB5B EQ PUSH2 0x138 JUMPI DUP1 PUSH4 0xB2E411C2 EQ PUSH2 0x14D JUMPI DUP1 PUSH4 0xC57981B5 EQ PUSH2 0x155 JUMPI DUP1 PUSH4 0xCE49EA9A EQ PUSH2 0x15D JUMPI DUP1 PUSH4 0xF2FDE38B EQ PUSH2 0x170 JUMPI PUSH2 0xB4 JUMP JUMPDEST DUP1 PUSH4 0x2E1A7D4D EQ PUSH2 0xB9 JUMPI DUP1 PUSH4 0x35403023 EQ PUSH2 0xCE JUMPI DUP1 PUSH4 0x5C36D25E EQ PUSH2 0xE1 JUMPI DUP1 PUSH4 0x618E552C EQ PUSH2 0xF4 JUMPI DUP1 PUSH4 0x6F5CDB6C EQ PUSH2 0x112 JUMPI DUP1 PUSH4 0x715018A6 EQ PUSH2 0x128 JUMPI JUMPDEST PUSH1 0x0 DUP1 REVERT JUMPDEST PUSH2 0xCC PUSH2 0xC7 CALLDATASIZE PUSH1 0x4 PUSH2 0xDD4 JUMP JUMPDEST PUSH2 0x183 JUMP JUMPDEST STOP JUMPDEST PUSH2 0xCC PUSH2 0xDC CALLDATASIZE PUSH1 0x4 PUSH2 0xDD4 JUMP JUMPDEST PUSH2 0x495 JUMP JUMPDEST PUSH2 0xCC PUSH2 0xEF CALLDATASIZE PUSH1 0x4 PUSH2 0xE25 JUMP JUMPDEST PUSH2 0x68A JUMP JUMPDEST PUSH2 0xFC PUSH2 0x8B6 JUMP JUMPDEST PUSH1 0x40 MLOAD PUSH2 0x109 SWAP2 SWAP1 PUSH2 0x1174 JUMP JUMPDEST PUSH1 0x40 MLOAD DUP1 SWAP2 SUB SWAP1 RETURN JUMPDEST PUSH2 0x11A PUSH2 0x8BC JUMP JUMPDEST PUSH1 0x40 MLOAD PUSH2 0x109 SWAP3 SWAP2 SWAP1 PUSH2 0x117D JUMP JUMPDEST PUSH2 0xCC PUSH2 0x903 JUMP JUMPDEST PUSH2 0xFC PUSH2 0x94E JUMP JUMPDEST PUSH2 0x140 PUSH2 0x954 JUMP JUMPDEST PUSH1 0x40 MLOAD PUSH2 0x109 SWAP2 SWAP1 PUSH2 0xE60 JUMP JUMPDEST PUSH2 0xFC PUSH2 0x963 JUMP JUMPDEST PUSH2 0xFC PUSH2 0x969 JUMP JUMPDEST PUSH2 0xCC PUSH2 0x16B CALLDATASIZE PUSH1 0x4 PUSH2 0xE04 JUMP JUMPDEST PUSH2 0x96F JUMP JUMPDEST PUSH2 0xCC PUSH2 0x17E CALLDATASIZE PUSH1 0x4 PUSH2 0xD8D JUMP JUMPDEST PUSH2 0xBBA JUMP JUMPDEST PUSH1 0x7 SLOAD PUSH1 0xFF AND PUSH2 0x1AE JUMPI PUSH1 0x40 MLOAD PUSH3 0x461BCD PUSH1 0xE5 SHL DUP2 MSTORE PUSH1 0x4 ADD PUSH2 0x1A5 SWAP1 PUSH2 0x1020 JUMP JUMPDEST PUSH1 0x40 MLOAD DUP1 SWAP2 SUB SWAP1 REVERT JUMPDEST PUSH1 0x0 DUP2 GT PUSH2 0x1CE JUMPI PUSH1 0x40 MLOAD PUSH3 0x461BCD PUSH1 0xE5 SHL DUP2 MSTORE PUSH1 0x4 ADD PUSH2 0x1A5 SWAP1 PUSH2 0x1063 JUMP JUMPDEST PUSH1 0x7 SLOAD PUSH1 0x40 MLOAD PUSH4 0x70A08231 PUSH1 0xE0 SHL DUP2 MSTORE DUP3 SWAP2 PUSH2 0x100 SWAP1 DIV PUSH1 0x1 PUSH1 0x1 PUSH1 0xA0 SHL SUB AND SWAP1 PUSH4 0x70A08231 SWAP1 PUSH2 0x203 SWAP1 CALLER SWAP1 PUSH1 0x4 ADD PUSH2 0xE60 JUMP JUMPDEST PUSH1 0x20 PUSH1 0x40 MLOAD DUP1 DUP4 SUB DUP2 DUP7 DUP1 EXTCODESIZE ISZERO DUP1 ISZERO PUSH2 0x21B JUMPI PUSH1 0x0 DUP1 REVERT JUMPDEST POP GAS STATICCALL ISZERO DUP1 ISZERO PUSH2 0x22F JUMPI RETURNDATASIZE PUSH1 0x0 DUP1 RETURNDATACOPY RETURNDATASIZE PUSH1 0x0 REVERT JUMPDEST POP POP POP POP PUSH1 0x40 MLOAD RETURNDATASIZE PUSH1 0x1F NOT PUSH1 0x1F DUP3 ADD AND DUP3 ADD DUP1 PUSH1 0x40 MSTORE POP DUP2 ADD SWAP1 PUSH2 0x253 SWAP2 SWAP1 PUSH2 0xDEC JUMP JUMPDEST LT ISZERO PUSH2 0x271 JUMPI PUSH1 0x40 MLOAD PUSH3 0x461BCD PUSH1 0xE5 SHL DUP2 MSTORE PUSH1 0x4 ADD PUSH2 0x1A5 SWAP1 PUSH2 0xFEB JUMP JUMPDEST PUSH1 0x0 DUP1 PUSH2 0x27C PUSH2 0x8BC JUMP JUMPDEST SWAP1 SWAP3 POP SWAP1 POP PUSH1 0x0 PUSH2 0x29A PUSH3 0xF4240 PUSH2 0x294 DUP6 DUP8 PUSH2 0xC2B JUMP JUMPDEST SWAP1 PUSH2 0xC3E JUMP JUMPDEST SWAP1 POP PUSH1 0x0 PUSH2 0x2AF PUSH3 0xF4240 PUSH2 0x294 DUP6 DUP9 PUSH2 0xC2B JUMP JUMPDEST PUSH1 0x3 SLOAD SWAP1 SWAP2 POP PUSH2 0x2BF SWAP1 DUP4 PUSH2 0xC4A JUMP JUMPDEST PUSH1 0x3 SSTORE PUSH1 0x4 SLOAD PUSH2 0x2CF SWAP1 DUP3 PUSH2 0xC4A JUMP JUMPDEST PUSH1 0x4 SSTORE PUSH1 0x5 SLOAD PUSH2 0x2DF SWAP1 DUP7 PUSH2 0xC4A JUMP JUMPDEST PUSH1 0x5 SSTORE PUSH1 0x7 SLOAD PUSH1 0x40 MLOAD PUSH4 0x852CD8D PUSH1 0xE3 SHL DUP2 MSTORE PUSH2 0x100 SWAP1 SWAP2 DIV PUSH1 0x1 PUSH1 0x1 PUSH1 0xA0 SHL SUB AND SWAP1 PUSH4 0x42966C68 SWAP1 PUSH2 0x316 SWAP1 DUP9 SWAP1 PUSH1 0x4 ADD PUSH2 0x1174 JUMP JUMPDEST PUSH1 0x0 PUSH1 0x40 MLOAD DUP1 DUP4 SUB DUP2 PUSH1 0x0 DUP8 DUP1 EXTCODESIZE ISZERO DUP1 ISZERO PUSH2 0x330 JUMPI PUSH1 0x0 DUP1 REVERT JUMPDEST POP GAS CALL ISZERO DUP1 ISZERO PUSH2 0x344 JUMPI RETURNDATASIZE PUSH1 0x0 DUP1 RETURNDATACOPY RETURNDATASIZE PUSH1 0x0 REVERT JUMPDEST POP POP PUSH1 0x1 SLOAD PUSH1 0x2 SLOAD PUSH1 0x40 MLOAD PUSH4 0xA9059CBB PUSH1 0xE0 SHL DUP2 MSTORE PUSH1 0x1 PUSH1 0x1 PUSH1 0xA0 SHL SUB SWAP3 DUP4 AND SWAP5 POP SWAP2 AND SWAP2 POP DUP3 SWAP1 PUSH4 0xA9059CBB SWAP1 PUSH2 0x382 SWAP1 CALLER SWAP1 DUP9 SWAP1 PUSH1 0x4 ADD PUSH2 0xE98 JUMP JUMPDEST PUSH1 0x20 PUSH1 0x40 MLOAD DUP1 DUP4 SUB DUP2 PUSH1 0x0 DUP8 DUP1 EXTCODESIZE ISZERO DUP1 ISZERO PUSH2 0x39C JUMPI PUSH1 0x0 DUP1 REVERT JUMPDEST POP GAS CALL ISZERO DUP1 ISZERO PUSH2 0x3B0 JUMPI RETURNDATASIZE PUSH1 0x0 DUP1 RETURNDATACOPY RETURNDATASIZE PUSH1 0x0 REVERT JUMPDEST POP POP POP POP PUSH1 0x40 MLOAD RETURNDATASIZE PUSH1 0x1F NOT PUSH1 0x1F DUP3 ADD AND DUP3 ADD DUP1 PUSH1 0x40 MSTORE POP DUP2 ADD SWAP1 PUSH2 0x3D4 SWAP2 SWAP1 PUSH2 0xDB4 JUMP JUMPDEST PUSH2 0x3F0 JUMPI PUSH1 0x40 MLOAD PUSH3 0x461BCD PUSH1 0xE5 SHL DUP2 MSTORE PUSH1 0x4 ADD PUSH2 0x1A5 SWAP1 PUSH2 0xFB4 JUMP JUMPDEST PUSH1 0x40 MLOAD PUSH4 0xA9059CBB PUSH1 0xE0 SHL DUP2 MSTORE PUSH1 0x1 PUSH1 0x1 PUSH1 0xA0 SHL SUB DUP3 AND SWAP1 PUSH4 0xA9059CBB SWAP1 PUSH2 0x41E SWAP1 CALLER SWAP1 DUP8 SWAP1 PUSH1 0x4 ADD PUSH2 0xE98 JUMP JUMPDEST PUSH1 0x20 PUSH1 0x40 MLOAD DUP1 DUP4 SUB DUP2 PUSH1 0x0 DUP8 DUP1 EXTCODESIZE ISZERO DUP1 ISZERO PUSH2 0x438 JUMPI PUSH1 0x0 DUP1 REVERT JUMPDEST POP GAS CALL ISZERO DUP1 ISZERO PUSH2 0x44C JUMPI RETURNDATASIZE PUSH1 0x0 DUP1 RETURNDATACOPY RETURNDATASIZE PUSH1 0x0 REVERT JUMPDEST POP POP POP POP PUSH1 0x40 MLOAD RETURNDATASIZE PUSH1 0x1F NOT PUSH1 0x1F DUP3 ADD AND DUP3 ADD DUP1 PUSH1 0x40 MSTORE POP DUP2 ADD SWAP1 PUSH2 0x470 SWAP2 SWAP1 PUSH2 0xDB4 JUMP JUMPDEST PUSH2 0x48C JUMPI PUSH1 0x40 MLOAD PUSH3 0x461BCD PUSH1 0xE5 SHL DUP2 MSTORE PUSH1 0x4 ADD PUSH2 0x1A5 SWAP1 PUSH2 0xF7D JUMP JUMPDEST POP POP POP POP POP POP POP JUMP JUMPDEST PUSH1 0x7 SLOAD PUSH1 0xFF AND PUSH2 0x4B7 JUMPI PUSH1 0x40 MLOAD PUSH3 0x461BCD PUSH1 0xE5 SHL DUP2 MSTORE PUSH1 0x4 ADD PUSH2 0x1A5 SWAP1 PUSH2 0x1020 JUMP JUMPDEST PUSH1 0x0 DUP2 GT PUSH2 0x4D7 JUMPI PUSH1 0x40 MLOAD PUSH3 0x461BCD PUSH1 0xE5 SHL DUP2 MSTORE PUSH1 0x4 ADD PUSH2 0x1A5 SWAP1 PUSH2 0xF2E JUMP JUMPDEST PUSH1 0x0 DUP1 PUSH2 0x4E2 PUSH2 0x8BC JUMP JUMPDEST PUSH1 0x1 SLOAD PUSH1 0x2 SLOAD SWAP3 SWAP5 POP SWAP1 SWAP3 POP PUSH1 0x1 PUSH1 0x1 PUSH1 0xA0 SHL SUB SWAP1 DUP2 AND SWAP2 AND PUSH1 0x0 PUSH2 0x50E PUSH3 0xF4240 PUSH2 0x294 DUP8 DUP10 PUSH2 0xC2B JUMP JUMPDEST SWAP1 POP PUSH1 0x0 PUSH2 0x523 PUSH3 0xF4240 PUSH2 0x294 DUP8 DUP11 PUSH2 0xC2B JUMP JUMPDEST PUSH1 0x3 SLOAD SWAP1 SWAP2 POP PUSH2 0x533 SWAP1 DUP4 PUSH2 0xC56 JUMP JUMPDEST PUSH1 0x3 SSTORE PUSH1 0x4 SLOAD PUSH2 0x543 SWAP1 DUP3 PUSH2 0xC56 JUMP JUMPDEST PUSH1 0x4 SSTORE PUSH1 0x5 SLOAD PUSH2 0x553 SWAP1 DUP9 PUSH2 0xC56 JUMP JUMPDEST PUSH1 0x5 SSTORE PUSH1 0x7 SLOAD PUSH1 0x40 MLOAD PUSH4 0x140E25AD PUSH1 0xE3 SHL DUP2 MSTORE PUSH2 0x100 SWAP1 SWAP2 DIV PUSH1 0x1 PUSH1 0x1 PUSH1 0xA0 SHL SUB AND SWAP1 PUSH4 0xA0712D68 SWAP1 PUSH2 0x58A SWAP1 DUP11 SWAP1 PUSH1 0x4 ADD PUSH2 0x1174 JUMP JUMPDEST PUSH1 0x0 PUSH1 0x40 MLOAD DUP1 DUP4 SUB DUP2 PUSH1 0x0 DUP8 DUP1 EXTCODESIZE ISZERO DUP1 ISZERO PUSH2 0x5A4 JUMPI PUSH1 0x0 DUP1 REVERT JUMPDEST POP GAS CALL ISZERO DUP1 ISZERO PUSH2 0x5B8 JUMPI RETURNDATASIZE PUSH1 0x0 DUP1 RETURNDATACOPY RETURNDATASIZE PUSH1 0x0 REVERT JUMPDEST POP POP PUSH1 0x40 MLOAD PUSH4 0x23B872DD PUSH1 0xE0 SHL DUP2 MSTORE PUSH1 0x1 PUSH1 0x1 PUSH1 0xA0 SHL SUB DUP8 AND SWAP3 POP PUSH4 0x23B872DD SWAP2 POP PUSH2 0x5EC SWAP1 CALLER SWAP1 ADDRESS SWAP1 DUP8 SWAP1 PUSH1 0x4 ADD PUSH2 0xE74 JUMP JUMPDEST PUSH1 0x20 PUSH1 0x40 MLOAD DUP1 DUP4 SUB DUP2 PUSH1 0x0 DUP8 DUP1 EXTCODESIZE ISZERO DUP1 ISZERO PUSH2 0x606 JUMPI PUSH1 0x0 DUP1 REVERT JUMPDEST POP GAS CALL ISZERO DUP1 ISZERO PUSH2 0x61A JUMPI RETURNDATASIZE PUSH1 0x0 DUP1 RETURNDATACOPY RETURNDATASIZE PUSH1 0x0 REVERT JUMPDEST POP POP POP POP PUSH1 0x40 MLOAD RETURNDATASIZE PUSH1 0x1F NOT PUSH1 0x1F DUP3 ADD AND DUP3 ADD DUP1 PUSH1 0x40 MSTORE POP DUP2 ADD SWAP1 PUSH2 0x63E SWAP2 SWAP1 PUSH2 0xDB4 JUMP JUMPDEST PUSH2 0x65A JUMPI PUSH1 0x40 MLOAD PUSH3 0x461BCD PUSH1 0xE5 SHL DUP2 MSTORE PUSH1 0x4 ADD PUSH2 0x1A5 SWAP1 PUSH2 0xFB4 JUMP JUMPDEST PUSH1 0x40 MLOAD PUSH4 0x23B872DD PUSH1 0xE0 SHL DUP2 MSTORE PUSH1 0x1 PUSH1 0x1 PUSH1 0xA0 SHL SUB DUP5 AND SWAP1 PUSH4 0x23B872DD SWAP1 PUSH2 0x41E SWAP1 CALLER SWAP1 ADDRESS SWAP1 DUP7 SWAP1 PUSH1 0x4 ADD PUSH2 0xE74 JUMP JUMPDEST PUSH1 0x7 SLOAD PUSH1 0xFF AND PUSH2 0x6AC JUMPI PUSH1 0x40 MLOAD PUSH3 0x461BCD PUSH1 0xE5 SHL DUP2 MSTORE PUSH1 0x4 ADD PUSH2 0x1A5 SWAP1 PUSH2 0x1020 JUMP JUMPDEST PUSH1 0x0 PUSH2 0x6B8 DUP5 DUP4 PUSH2 0xC62 JUMP JUMPDEST SWAP1 POP DUP3 DUP2 LT ISZERO PUSH2 0x6DA JUMPI PUSH1 0x40 MLOAD PUSH3 0x461BCD PUSH1 0xE5 SHL DUP2 MSTORE PUSH1 0x4 ADD PUSH2 0x1A5 SWAP1 PUSH2 0x111F JUMP JUMPDEST PUSH1 0x0 DUP1 DUP1 DUP5 PUSH1 0x1 DUP2 GT ISZERO PUSH2 0x6FE JUMPI PUSH4 0x4E487B71 PUSH1 0xE0 SHL PUSH1 0x0 MSTORE PUSH1 0x21 PUSH1 0x4 MSTORE PUSH1 0x24 PUSH1 0x0 REVERT JUMPDEST EQ ISZERO PUSH2 0x73E JUMPI PUSH1 0x3 SLOAD PUSH2 0x711 SWAP1 DUP8 PUSH2 0xC56 JUMP JUMPDEST PUSH1 0x3 SSTORE PUSH1 0x4 SLOAD PUSH2 0x721 SWAP1 DUP5 PUSH2 0xC4A JUMP JUMPDEST PUSH1 0x4 SSTORE POP POP PUSH1 0x1 SLOAD PUSH1 0x2 SLOAD PUSH1 0x1 PUSH1 0x1 PUSH1 0xA0 SHL SUB SWAP2 DUP3 AND SWAP2 AND PUSH2 0x774 JUMP JUMPDEST PUSH1 0x3 SLOAD PUSH2 0x74B SWAP1 DUP5 PUSH2 0xC4A JUMP JUMPDEST PUSH1 0x3 SSTORE PUSH1 0x4 SLOAD PUSH2 0x75B SWAP1 DUP8 PUSH2 0xC56 JUMP JUMPDEST PUSH1 0x4 SSTORE POP POP PUSH1 0x2 SLOAD PUSH1 0x1 SLOAD PUSH1 0x1 PUSH1 0x1 PUSH1 0xA0 SHL SUB SWAP2 DUP3 AND SWAP2 AND JUMPDEST PUSH1 0x40 MLOAD PUSH4 0xA9059CBB PUSH1 0xE0 SHL DUP2 MSTORE PUSH1 0x1 PUSH1 0x1 PUSH1 0xA0 SHL SUB DUP3 AND SWAP1 PUSH4 0xA9059CBB SWAP1 PUSH2 0x7A2 SWAP1 CALLER SWAP1 DUP8 SWAP1 PUSH1 0x4 ADD PUSH2 0xE98 JUMP JUMPDEST PUSH1 0x20 PUSH1 0x40 MLOAD DUP1 DUP4 SUB DUP2 PUSH1 0x0 DUP8 DUP1 EXTCODESIZE ISZERO DUP1 ISZERO PUSH2 0x7BC JUMPI PUSH1 0x0 DUP1 REVERT JUMPDEST POP GAS CALL ISZERO DUP1 ISZERO PUSH2 0x7D0 JUMPI RETURNDATASIZE PUSH1 0x0 DUP1 RETURNDATACOPY RETURNDATASIZE PUSH1 0x0 REVERT JUMPDEST POP POP POP POP PUSH1 0x40 MLOAD RETURNDATASIZE PUSH1 0x1F NOT PUSH1 0x1F DUP3 ADD AND DUP3 ADD DUP1 PUSH1 0x40 MSTORE POP DUP2 ADD SWAP1 PUSH2 0x7F4 SWAP2 SWAP1 PUSH2 0xDB4 JUMP JUMPDEST PUSH2 0x810 JUMPI PUSH1 0x40 MLOAD PUSH3 0x461BCD PUSH1 0xE5 SHL DUP2 MSTORE PUSH1 0x4 ADD PUSH2 0x1A5 SWAP1 PUSH2 0x10E8 JUMP JUMPDEST PUSH1 0x40 MLOAD PUSH4 0x23B872DD PUSH1 0xE0 SHL DUP2 MSTORE PUSH1 0x1 PUSH1 0x1 PUSH1 0xA0 SHL SUB DUP4 AND SWAP1 PUSH4 0x23B872DD SWAP1 PUSH2 0x840 SWAP1 CALLER SWAP1 ADDRESS SWAP1 DUP12 SWAP1 PUSH1 0x4 ADD PUSH2 0xE74 JUMP JUMPDEST PUSH1 0x20 PUSH1 0x40 MLOAD DUP1 DUP4 SUB DUP2 PUSH1 0x0 DUP8 DUP1 EXTCODESIZE ISZERO DUP1 ISZERO PUSH2 0x85A JUMPI PUSH1 0x0 DUP1 REVERT JUMPDEST POP GAS CALL ISZERO DUP1 ISZERO PUSH2 0x86E JUMPI RETURNDATASIZE PUSH1 0x0 DUP1 RETURNDATACOPY RETURNDATASIZE PUSH1 0x0 REVERT JUMPDEST POP POP POP POP PUSH1 0x40 MLOAD RETURNDATASIZE PUSH1 0x1F NOT PUSH1 0x1F DUP3 ADD AND DUP3 ADD DUP1 PUSH1 0x40 MSTORE POP DUP2 ADD SWAP1 PUSH2 0x892 SWAP2 SWAP1 PUSH2 0xDB4 JUMP JUMPDEST PUSH2 0x8AE JUMPI PUSH1 0x40 MLOAD PUSH3 0x461BCD PUSH1 0xE5 SHL DUP2 MSTORE PUSH1 0x4 ADD PUSH2 0x1A5 SWAP1 PUSH2 0x10E8 JUMP JUMPDEST POP POP POP POP POP POP JUMP JUMPDEST PUSH1 0x3 SLOAD DUP2 JUMP JUMPDEST PUSH1 0x0 DUP1 PUSH2 0x8DD PUSH1 0x5 SLOAD PUSH2 0x294 PUSH3 0xF4240 PUSH1 0x3 SLOAD PUSH2 0xC2B SWAP1 SWAP2 SWAP1 PUSH4 0xFFFFFFFF AND JUMP JUMPDEST PUSH2 0x8FB PUSH1 0x5 SLOAD PUSH2 0x294 PUSH3 0xF4240 PUSH1 0x4 SLOAD PUSH2 0xC2B SWAP1 SWAP2 SWAP1 PUSH4 0xFFFFFFFF AND JUMP JUMPDEST SWAP2 POP SWAP2 POP SWAP1 SWAP2 JUMP JUMPDEST PUSH2 0x90B PUSH2 0xD39 JUMP JUMPDEST PUSH1 0x1 PUSH1 0x1 PUSH1 0xA0 SHL SUB AND PUSH2 0x91C PUSH2 0x954 JUMP JUMPDEST PUSH1 0x1 PUSH1 0x1 PUSH1 0xA0 SHL SUB AND EQ PUSH2 0x942 JUMPI PUSH1 0x40 MLOAD PUSH3 0x461BCD PUSH1 0xE5 SHL DUP2 MSTORE PUSH1 0x4 ADD PUSH2 0x1A5 SWAP1 PUSH2 0x10B3 JUMP JUMPDEST PUSH2 0x94C PUSH1 0x0 PUSH2 0xD3D JUMP JUMPDEST JUMP JUMPDEST PUSH1 0x5 SLOAD DUP2 JUMP JUMPDEST PUSH1 0x0 SLOAD PUSH1 0x1 PUSH1 0x1 PUSH1 0xA0 SHL SUB AND SWAP1 JUMP JUMPDEST PUSH1 0x4 SLOAD DUP2 JUMP JUMPDEST PUSH1 0x6 SLOAD DUP2 JUMP JUMPDEST PUSH2 0x977 PUSH2 0xD39 JUMP JUMPDEST PUSH1 0x1 PUSH1 0x1 PUSH1 0xA0 SHL SUB AND PUSH2 0x988 PUSH2 0x954 JUMP JUMPDEST PUSH1 0x1 PUSH1 0x1 PUSH1 0xA0 SHL SUB AND EQ PUSH2 0x9AE JUMPI PUSH1 0x40 MLOAD PUSH3 0x461BCD PUSH1 0xE5 SHL DUP2 MSTORE PUSH1 0x4 ADD PUSH2 0x1A5 SWAP1 PUSH2 0x10B3 JUMP JUMPDEST PUSH1 0x7 SLOAD PUSH1 0xFF AND ISZERO PUSH2 0x9D1 JUMPI PUSH1 0x40 MLOAD PUSH3 0x461BCD PUSH1 0xE5 SHL DUP2 MSTORE PUSH1 0x4 ADD PUSH2 0x1A5 SWAP1 PUSH2 0xEF7 JUMP JUMPDEST PUSH1 0x7 DUP1 SLOAD PUSH1 0xFF NOT AND PUSH1 0x1 SWAP1 DUP2 OR SWAP1 SWAP2 SSTORE SLOAD PUSH1 0x2 SLOAD PUSH1 0x40 MLOAD PUSH4 0x23B872DD PUSH1 0xE0 SHL DUP2 MSTORE PUSH1 0x1 PUSH1 0x1 PUSH1 0xA0 SHL SUB SWAP3 DUP4 AND SWAP3 SWAP2 SWAP1 SWAP2 AND SWAP1 DUP3 SWAP1 PUSH4 0x23B872DD SWAP1 PUSH2 0xA1D SWAP1 CALLER SWAP1 ADDRESS SWAP1 DUP10 SWAP1 PUSH1 0x4 ADD PUSH2 0xE74 JUMP JUMPDEST PUSH1 0x20 PUSH1 0x40 MLOAD DUP1 DUP4 SUB DUP2 PUSH1 0x0 DUP8 DUP1 EXTCODESIZE ISZERO DUP1 ISZERO PUSH2 0xA37 JUMPI PUSH1 0x0 DUP1 REVERT JUMPDEST POP GAS CALL ISZERO DUP1 ISZERO PUSH2 0xA4B JUMPI RETURNDATASIZE PUSH1 0x0 DUP1 RETURNDATACOPY RETURNDATASIZE PUSH1 0x0 REVERT JUMPDEST POP POP POP POP PUSH1 0x40 MLOAD RETURNDATASIZE PUSH1 0x1F NOT PUSH1 0x1F DUP3 ADD AND DUP3 ADD DUP1 PUSH1 0x40 MSTORE POP DUP2 ADD SWAP1 PUSH2 0xA6F SWAP2 SWAP1 PUSH2 0xDB4 JUMP JUMPDEST PUSH2 0xA8B JUMPI PUSH1 0x40 MLOAD PUSH3 0x461BCD PUSH1 0xE5 SHL DUP2 MSTORE PUSH1 0x4 ADD PUSH2 0x1A5 SWAP1 PUSH2 0xFB4 JUMP JUMPDEST PUSH1 0x40 MLOAD PUSH4 0x23B872DD PUSH1 0xE0 SHL DUP2 MSTORE PUSH1 0x1 PUSH1 0x1 PUSH1 0xA0 SHL SUB DUP3 AND SWAP1 PUSH4 0x23B872DD SWAP1 PUSH2 0xABB SWAP1 CALLER SWAP1 ADDRESS SWAP1 DUP9 SWAP1 PUSH1 0x4 ADD PUSH2 0xE74 JUMP JUMPDEST PUSH1 0x20 PUSH1 0x40 MLOAD DUP1 DUP4 SUB DUP2 PUSH1 0x0 DUP8 DUP1 EXTCODESIZE ISZERO DUP1 ISZERO PUSH2 0xAD5 JUMPI PUSH1 0x0 DUP1 REVERT JUMPDEST POP GAS CALL ISZERO DUP1 ISZERO PUSH2 0xAE9 JUMPI RETURNDATASIZE PUSH1 0x0 DUP1 RETURNDATACOPY RETURNDATASIZE PUSH1 0x0 REVERT JUMPDEST POP POP POP POP PUSH1 0x40 MLOAD RETURNDATASIZE PUSH1 0x1F NOT PUSH1 0x1F DUP3 ADD AND DUP3 ADD DUP1 PUSH1 0x40 MSTORE POP DUP2 ADD SWAP1 PUSH2 0xB0D SWAP2 SWAP1 PUSH2 0xDB4 JUMP JUMPDEST PUSH2 0xB29 JUMPI PUSH1 0x40 MLOAD PUSH3 0x461BCD PUSH1 0xE5 SHL DUP2 MSTORE PUSH1 0x4 ADD PUSH2 0x1A5 SWAP1 PUSH2 0xF7D JUMP JUMPDEST PUSH1 0x3 SLOAD PUSH2 0xB36 SWAP1 DUP6 PUSH2 0xC56 JUMP JUMPDEST PUSH1 0x3 SSTORE PUSH1 0x4 SLOAD PUSH2 0xB46 SWAP1 DUP5 PUSH2 0xC56 JUMP JUMPDEST PUSH1 0x4 SWAP1 DUP2 SSTORE PUSH1 0x5 DUP5 SWAP1 SSTORE PUSH1 0x7 SLOAD PUSH1 0x40 MLOAD PUSH4 0x140E25AD PUSH1 0xE3 SHL DUP2 MSTORE PUSH2 0x100 SWAP1 SWAP2 DIV PUSH1 0x1 PUSH1 0x1 PUSH1 0xA0 SHL SUB AND SWAP2 PUSH4 0xA0712D68 SWAP2 PUSH2 0xB82 SWAP2 DUP8 SWAP2 ADD PUSH2 0x1174 JUMP JUMPDEST PUSH1 0x0 PUSH1 0x40 MLOAD DUP1 DUP4 SUB DUP2 PUSH1 0x0 DUP8 DUP1 EXTCODESIZE ISZERO DUP1 ISZERO PUSH2 0xB9C JUMPI PUSH1 0x0 DUP1 REVERT JUMPDEST POP GAS CALL ISZERO DUP1 ISZERO PUSH2 0xBB0 JUMPI RETURNDATASIZE PUSH1 0x0 DUP1 RETURNDATACOPY RETURNDATASIZE PUSH1 0x0 REVERT JUMPDEST POP POP POP POP POP POP POP POP JUMP JUMPDEST PUSH2 0xBC2 PUSH2 0xD39 JUMP JUMPDEST PUSH1 0x1 PUSH1 0x1 PUSH1 0xA0 SHL SUB AND PUSH2 0xBD3 PUSH2 0x954 JUMP JUMPDEST PUSH1 0x1 PUSH1 0x1 PUSH1 0xA0 SHL SUB AND EQ PUSH2 0xBF9 JUMPI PUSH1 0x40 MLOAD PUSH3 0x461BCD PUSH1 0xE5 SHL DUP2 MSTORE PUSH1 0x4 ADD PUSH2 0x1A5 SWAP1 PUSH2 0x10B3 JUMP JUMPDEST PUSH1 0x1 PUSH1 0x1 PUSH1 0xA0 SHL SUB DUP2 AND PUSH2 0xC1F JUMPI PUSH1 0x40 MLOAD PUSH3 0x461BCD PUSH1 0xE5 SHL DUP2 MSTORE PUSH1 0x4 ADD PUSH2 0x1A5 SWAP1 PUSH2 0xEB1 JUMP JUMPDEST PUSH2 0xC28 DUP2 PUSH2 0xD3D JUMP JUMPDEST POP JUMP JUMPDEST PUSH1 0x0 PUSH2 0xC37 DUP3 DUP5 PUSH2 0x11C3 JUMP JUMPDEST SWAP4 SWAP3 POP POP POP JUMP JUMPDEST PUSH1 0x0 PUSH2 0xC37 DUP3 DUP5 PUSH2 0x11A3 JUMP JUMPDEST PUSH1 0x0 PUSH2 0xC37 DUP3 DUP5 PUSH2 0x11E2 JUMP JUMPDEST PUSH1 0x0 PUSH2 0xC37 DUP3 DUP5 PUSH2 0x118B JUMP JUMPDEST PUSH1 0x0 DUP1 DUP1 DUP4 PUSH1 0x1 DUP2 GT ISZERO PUSH2 0xC86 JUMPI PUSH4 0x4E487B71 PUSH1 0xE0 SHL PUSH1 0x0 MSTORE PUSH1 0x21 PUSH1 0x4 MSTORE PUSH1 0x24 PUSH1 0x0 REVERT JUMPDEST EQ PUSH2 0xC93 JUMPI PUSH1 0x3 SLOAD PUSH2 0xC97 JUMP JUMPDEST PUSH1 0x4 SLOAD JUMPDEST SWAP1 POP PUSH1 0x0 DUP1 DUP5 PUSH1 0x1 DUP2 GT ISZERO PUSH2 0xCBC JUMPI PUSH4 0x4E487B71 PUSH1 0xE0 SHL PUSH1 0x0 MSTORE PUSH1 0x21 PUSH1 0x4 MSTORE PUSH1 0x24 PUSH1 0x0 REVERT JUMPDEST EQ PUSH2 0xCC9 JUMPI PUSH1 0x4 SLOAD PUSH2 0xCCD JUMP JUMPDEST PUSH1 0x3 SLOAD JUMPDEST SWAP1 POP PUSH1 0x0 PUSH1 0x3 SLOAD PUSH1 0x4 SLOAD PUSH2 0xCE1 SWAP2 SWAP1 PUSH2 0x11C3 JUMP JUMPDEST SWAP1 POP PUSH1 0x0 PUSH2 0xD03 PUSH2 0xCFC PUSH2 0xCF5 DUP10 DUP7 PUSH2 0x118B JUMP JUMPDEST DUP5 SWAP1 PUSH2 0xC3E JUMP JUMPDEST DUP6 SWAP1 PUSH2 0xC4A JUMP JUMPDEST SWAP1 POP PUSH3 0xF4240 PUSH1 0x6 SLOAD PUSH3 0xF4240 PUSH2 0xD1A SWAP2 SWAP1 PUSH2 0x11E2 JUMP JUMPDEST PUSH2 0xD24 SWAP1 DUP4 PUSH2 0x11C3 JUMP JUMPDEST PUSH2 0xD2E SWAP2 SWAP1 PUSH2 0x11A3 JUMP JUMPDEST SWAP8 SWAP7 POP POP POP POP POP POP POP JUMP JUMPDEST CALLER SWAP1 JUMP JUMPDEST PUSH1 0x0 DUP1 SLOAD PUSH1 0x1 PUSH1 0x1 PUSH1 0xA0 SHL SUB DUP4 DUP2 AND PUSH1 0x1 PUSH1 0x1 PUSH1 0xA0 SHL SUB NOT DUP4 AND DUP2 OR DUP5 SSTORE PUSH1 0x40 MLOAD SWAP2 SWAP1 SWAP3 AND SWAP3 DUP4 SWAP2 PUSH32 0x8BE0079C531659141344CD1FD0A4F28419497F9722A3DAAFE3B4186F6B6457E0 SWAP2 SWAP1 LOG3 POP POP JUMP JUMPDEST PUSH1 0x0 PUSH1 0x20 DUP3 DUP5 SUB SLT ISZERO PUSH2 0xD9E JUMPI DUP1 DUP2 REVERT JUMPDEST DUP2 CALLDATALOAD PUSH1 0x1 PUSH1 0x1 PUSH1 0xA0 SHL SUB DUP2 AND DUP2 EQ PUSH2 0xC37 JUMPI DUP2 DUP3 REVERT JUMPDEST PUSH1 0x0 PUSH1 0x20 DUP3 DUP5 SUB SLT ISZERO PUSH2 0xDC5 JUMPI DUP1 DUP2 REVERT JUMPDEST DUP2 MLOAD DUP1 ISZERO ISZERO DUP2 EQ PUSH2 0xC37 JUMPI DUP2 DUP3 REVERT JUMPDEST PUSH1 0x0 PUSH1 0x20 DUP3 DUP5 SUB SLT ISZERO PUSH2 0xDE5 JUMPI DUP1 DUP2 REVERT JUMPDEST POP CALLDATALOAD SWAP2 SWAP1 POP JUMP JUMPDEST PUSH1 0x0 PUSH1 0x20 DUP3 DUP5 SUB SLT ISZERO PUSH2 0xDFD JUMPI DUP1 DUP2 REVERT JUMPDEST POP MLOAD SWAP2 SWAP1 POP JUMP JUMPDEST PUSH1 0x0 DUP1 PUSH1 0x40 DUP4 DUP6 SUB SLT ISZERO PUSH2 0xE16 JUMPI DUP1 DUP2 REVERT JUMPDEST POP POP DUP1 CALLDATALOAD SWAP3 PUSH1 0x20 SWAP1 SWAP2 ADD CALLDATALOAD SWAP2 POP JUMP JUMPDEST PUSH1 0x0 DUP1 PUSH1 0x0 PUSH1 0x60 DUP5 DUP7 SUB SLT ISZERO PUSH2 0xE39 JUMPI DUP1 DUP2 REVERT JUMPDEST DUP4 CALLDATALOAD SWAP3 POP PUSH1 0x20 DUP5 ADD CALLDATALOAD SWAP2 POP PUSH1 0x40 DUP5 ADD CALLDATALOAD PUSH1 0x2 DUP2 LT PUSH2 0xE55 JUMPI DUP2 DUP3 REVERT JUMPDEST DUP1 SWAP2 POP POP SWAP3 POP SWAP3 POP SWAP3 JUMP JUMPDEST PUSH1 0x1 PUSH1 0x1 PUSH1 0xA0 SHL SUB SWAP2 SWAP1 SWAP2 AND DUP2 MSTORE PUSH1 0x20 ADD SWAP1 JUMP JUMPDEST PUSH1 0x1 PUSH1 0x1 PUSH1 0xA0 SHL SUB SWAP4 DUP5 AND DUP2 MSTORE SWAP2 SWAP1 SWAP3 AND PUSH1 0x20 DUP3 ADD MSTORE PUSH1 0x40 DUP2 ADD SWAP2 SWAP1 SWAP2 MSTORE PUSH1 0x60 ADD SWAP1 JUMP JUMPDEST PUSH1 0x1 PUSH1 0x1 PUSH1 0xA0 SHL SUB SWAP3 SWAP1 SWAP3 AND DUP3 MSTORE PUSH1 0x20 DUP3 ADD MSTORE PUSH1 0x40 ADD SWAP1 JUMP JUMPDEST PUSH1 0x20 DUP1 DUP3 MSTORE PUSH1 0x26 SWAP1 DUP3 ADD MSTORE PUSH32 0x4F776E61626C653A206E6577206F776E657220697320746865207A65726F2061 PUSH1 0x40 DUP3 ADD MSTORE PUSH6 0x646472657373 PUSH1 0xD0 SHL PUSH1 0x60 DUP3 ADD MSTORE PUSH1 0x80 ADD SWAP1 JUMP JUMPDEST PUSH1 0x20 DUP1 DUP3 MSTORE PUSH1 0x1E SWAP1 DUP3 ADD MSTORE PUSH32 0x54686520706F6F6C2077617320616C726561647920696E697469617465640000 PUSH1 0x40 DUP3 ADD MSTORE PUSH1 0x60 ADD SWAP1 JUMP JUMPDEST PUSH1 0x20 DUP1 DUP3 MSTORE PUSH1 0x2F SWAP1 DUP3 ADD MSTORE PUSH32 0x54686520616D6F756E74206F6620737570706C696564206C7020746F6B656E73 PUSH1 0x40 DUP3 ADD MSTORE PUSH15 0x1039B437BAB632103132901F101817 PUSH1 0x89 SHL PUSH1 0x60 DUP3 ADD MSTORE PUSH1 0x80 ADD SWAP1 JUMP JUMPDEST PUSH1 0x20 DUP1 DUP3 MSTORE PUSH1 0x18 SWAP1 DUP3 ADD MSTORE PUSH32 0x5553444320616D6F756E7420756E617661696C61626C652E0000000000000000 PUSH1 0x40 DUP3 ADD MSTORE PUSH1 0x60 ADD SWAP1 JUMP JUMPDEST PUSH1 0x20 DUP1 DUP3 MSTORE PUSH1 0x18 SWAP1 DUP3 ADD MSTORE PUSH32 0x4C696E6B20616D6F756E7420756E617661696C61626C652E0000000000000000 PUSH1 0x40 DUP3 ADD MSTORE PUSH1 0x60 ADD SWAP1 JUMP JUMPDEST PUSH1 0x20 DUP1 DUP3 MSTORE DUP2 DUP2 ADD MSTORE PUSH32 0x596F7520646F6E2774206861766520656E6F756768204C5020746F6B656E732E PUSH1 0x40 DUP3 ADD MSTORE PUSH1 0x60 ADD SWAP1 JUMP JUMPDEST PUSH1 0x20 DUP1 DUP3 MSTORE PUSH1 0x23 SWAP1 DUP3 ADD MSTORE PUSH32 0x54686520706F6F6C2073686F756C6420626520696E6974696174656420666972 PUSH1 0x40 DUP3 ADD MSTORE PUSH3 0x39BA17 PUSH1 0xE9 SHL PUSH1 0x60 DUP3 ADD MSTORE PUSH1 0x80 ADD SWAP1 JUMP JUMPDEST PUSH1 0x20 DUP1 DUP3 MSTORE PUSH1 0x30 SWAP1 DUP3 ADD MSTORE PUSH32 0x54686520616D6F756E74206F6620726571756573746564206C7020746F6B656E PUSH1 0x40 DUP3 ADD MSTORE PUSH16 0x399039B437BAB632103132901F101817 PUSH1 0x81 SHL PUSH1 0x60 DUP3 ADD MSTORE PUSH1 0x80 ADD SWAP1 JUMP JUMPDEST PUSH1 0x20 DUP1 DUP3 MSTORE DUP2 DUP2 ADD MSTORE PUSH32 0x4F776E61626C653A2063616C6C6572206973206E6F7420746865206F776E6572 PUSH1 0x40 DUP3 ADD MSTORE PUSH1 0x60 ADD SWAP1 JUMP JUMPDEST PUSH1 0x20 DUP1 DUP3 MSTORE PUSH1 0x19 SWAP1 DUP3 ADD MSTORE PUSH32 0x546F6B656E20616D6F756E7420756E617661696C61626C652E00000000000000 PUSH1 0x40 DUP3 ADD MSTORE PUSH1 0x60 ADD SWAP1 JUMP JUMPDEST PUSH1 0x20 DUP1 DUP3 MSTORE PUSH1 0x35 SWAP1 DUP3 ADD MSTORE PUSH32 0x54686520616D6F756E74206F662070757263686173656420746F6B656E206973 PUSH1 0x40 DUP3 ADD MSTORE PUSH21 0x103637BBB2B9103A3430B7103932B8BAB4B932B217 PUSH1 0x59 SHL PUSH1 0x60 DUP3 ADD MSTORE PUSH1 0x80 ADD SWAP1 JUMP JUMPDEST SWAP1 DUP2 MSTORE PUSH1 0x20 ADD SWAP1 JUMP JUMPDEST SWAP2 DUP3 MSTORE PUSH1 0x20 DUP3 ADD MSTORE PUSH1 0x40 ADD SWAP1 JUMP JUMPDEST PUSH1 0x0 DUP3 NOT DUP3 GT ISZERO PUSH2 0x119E JUMPI PUSH2 0x119E PUSH2 0x11F9 JUMP JUMPDEST POP ADD SWAP1 JUMP JUMPDEST PUSH1 0x0 DUP3 PUSH2 0x11BE JUMPI PUSH4 0x4E487B71 PUSH1 0xE0 SHL DUP2 MSTORE PUSH1 0x12 PUSH1 0x4 MSTORE PUSH1 0x24 DUP2 REVERT JUMPDEST POP DIV SWAP1 JUMP JUMPDEST PUSH1 0x0 DUP2 PUSH1 0x0 NOT DIV DUP4 GT DUP3 ISZERO ISZERO AND ISZERO PUSH2 0x11DD JUMPI PUSH2 0x11DD PUSH2 0x11F9 JUMP JUMPDEST POP MUL SWAP1 JUMP JUMPDEST PUSH1 0x0 DUP3 DUP3 LT ISZERO PUSH2 0x11F4 JUMPI PUSH2 0x11F4 PUSH2 0x11F9 JUMP JUMPDEST POP SUB SWAP1 JUMP JUMPDEST PUSH4 0x4E487B71 PUSH1 0xE0 SHL PUSH1 0x0 MSTORE PUSH1 0x11 PUSH1 0x4 MSTORE PUSH1 0x24 PUSH1 0x0 REVERT INVALID LOG2 PUSH5 0x6970667358 0x22 SLT KECCAK256 PUSH1 0x59 0xD2 CODECOPY 0x27 0xC0 0xDD PUSH19 0x795AAEE76626FBDAC3422B52A18D9EC7D1B3D9 DUP13 SWAP10 SDIV 0xEE 0xD8 PUSH5 0x736F6C6343 STOP ADDMOD STOP STOP CALLER ","sha1":"20cb236248cbe89541a71de5c0062798e4d24391","source":"// SPDX-License-Identifier: UNLICENSED\npragma solidity ^0.8.0;\n\nimport {ERC20} from \"@openzeppelin/contracts/token/ERC20/ERC20.sol\";\nimport \"@openzeppelin/contracts/utils/math/SafeMath.sol\";\nimport \"@openzeppelin/contracts/access/Ownable.sol\";\n\n\ninterface IERC20 {\n    function transfer(address recipient, uint256 amount) external returns (bool);\n    function transferFrom(address sender, address recipient, uint256 amount) external returns (bool);\n    function approve(address spender, uint256 amount) external returns (bool);\n}\n\ncontract LpSimpleSwap is ERC20 {\n    constructor() ERC20(\"Lp Simple Swap\", \"LpSimpleSwap\") {\n    }\n\n    function mint(uint256 quantity) public {\n        _mint(tx.origin, quantity);\n    }\n\n    function burn(uint256 quantity) public {\n        _burn(tx.origin, quantity);\n    }\n\n    function decimals() public view override returns (uint8) {\n        return 6;\n    }\n}\n\n\n\ncontract SimpleSwap is Ownable{\n    using SafeMath for uint256;\n\n    enum Tokens{Link, USDC}\n\n    address addressLink = 0xa36085F69e2889c224210F603D836748e7dC0088;   //Kovan address      //0x01BE23585060835E02B77ef475b0Cc51aA1e0709; rinkeby\n    address addressUSDC = 0xb7a4F3E9097C08dA09517b5aB877F7a917224ede;    //Kovan address            //0xeb8f08a975Ab53E34D8a0330E0D34de942C95926; rinkeby\n\n    uint256 public totalAvailableLink = 0;      //18 decimals\n    uint256 public totalAvailableUSDC = 0;      //6 decimals\n\n    uint256  public totalLpTokens = 0;           //6 decimals\n\n    uint256 public FEE = 3 * 10 ** 3;         //6 decimals\n\n    bool isPoolInitiated = false;\n\n    LpSimpleSwap lpTokens = new LpSimpleSwap();\n\n \n\n    function initiatePool(uint256 amountLinkToSupply, uint256 amountUsdcToSupply) public onlyOwner {\n        require(!isPoolInitiated, \"The pool was already initiated\");\n        isPoolInitiated = true;\n        IERC20 Link = IERC20(addressLink);\n        IERC20 USDC = IERC20(addressUSDC);\n\n        require(Link.transferFrom(msg.sender, address(this), amountLinkToSupply), \"Link amount unavailable.\");\n        require(USDC.transferFrom(msg.sender, address(this), amountUsdcToSupply), \"USDC amount unavailable.\");\n\n        totalAvailableLink = totalAvailableLink.add(amountLinkToSupply);\n        totalAvailableUSDC = totalAvailableUSDC.add(amountUsdcToSupply);\n\n\n        totalLpTokens = amountUsdcToSupply;\n        //userToAmountLpTokens[msg.sender] = userToAmountLpTokens[msg.sender].add(totalLpTokens);\n        lpTokens.mint(totalLpTokens);\n    }\n\n\n    // Basic check: Done\n    function swap(uint256 quantitySoldToken, uint256 minAmountPurchasedToken, Tokens tokenForSale) public {\n        require(isPoolInitiated, \"The pool should be initiated first.\");\n        uint256 amountPurchasedToken = getAmountPurchasedToken(quantitySoldToken, tokenForSale);\n        require(amountPurchasedToken >= minAmountPurchasedToken, \"The amount of purchased token is lower than required.\");\n\n        IERC20 soldToken;\n        IERC20 boughtToken;\n\n        if (tokenForSale == Tokens.Link) {\n            totalAvailableLink  = totalAvailableLink.add(quantitySoldToken);\n            totalAvailableUSDC = totalAvailableUSDC.sub(amountPurchasedToken);\n\n            soldToken = IERC20(addressLink);\n            boughtToken = IERC20(addressUSDC);\n        }\n\n        else {\n            totalAvailableLink = totalAvailableLink.sub(amountPurchasedToken);\n            totalAvailableUSDC = totalAvailableUSDC.add(quantitySoldToken);\n\n            soldToken = IERC20(addressUSDC); \n            boughtToken = IERC20(addressLink);\n        }\n        \n        require(boughtToken.transfer(msg.sender, amountPurchasedToken), \"Token amount unavailable.\");\n        require(soldToken.transferFrom(msg.sender, address(this), quantitySoldToken), \"Token amount unavailable.\");\n\n    }\n\n    // Basic check: Done\n    function supply(uint256 amountLpTokens) public {\n        require(isPoolInitiated, \"The pool should be initiated first.\");\n        require(amountLpTokens > 0, \"The amount of supplied lp tokens should be > 0.\");\n        (uint256 amountLinkPerLpToken, uint256 amountUsdcPerLpToken) = getLpTokenPrice();\n\n        IERC20 Link = IERC20(addressLink);\n        IERC20 USDC = IERC20(addressUSDC);\n\n        uint256 amountLinkToSupply = amountLinkPerLpToken.mul(amountLpTokens).div(10 ** 6); // 18 decimals\n        uint256 amountUSDCToSupply = amountUsdcPerLpToken.mul(amountLpTokens).div(10 ** 6); // 6 decimals\n\n        totalAvailableLink = totalAvailableLink.add(amountLinkToSupply);\n        totalAvailableUSDC = totalAvailableUSDC.add(amountUSDCToSupply);\n\n        totalLpTokens = totalLpTokens.add(amountLpTokens);\n\n        //userToAmountLpTokens[msg.sender] = userToAmountLpTokens[msg.sender].add(amountLpTokens);\n        lpTokens.mint(amountLpTokens);\n\n        require(Link.transferFrom(msg.sender, address(this), amountLinkToSupply), \"Link amount unavailable.\");\n        require(USDC.transferFrom(msg.sender, address(this), amountUSDCToSupply), \"USDC amount unavailable.\");\n    }\n\n\n    // Basic check: Done\n    function withdraw(uint256 amountLpTokens) public {\n        require(isPoolInitiated, \"The pool should be initiated first.\");\n        require(amountLpTokens > 0, \"The amount of requested lp tokens should be > 0.\");\n        require(lpTokens.balanceOf(msg.sender) >= amountLpTokens, \"You don't have enough LP tokens.\");\n\n        \n        (uint256 amountLinkPerLpToken, uint256 amountUSDCPerLpToken)  = getLpTokenPrice();\n\n        uint256 amountLinkToWithdraw = amountLinkPerLpToken.mul(amountLpTokens).div(10 ** 6);\n        uint256 amountUSDCToWithdraw = amountUSDCPerLpToken.mul(amountLpTokens).div(10 ** 6);\n\n        totalAvailableLink = totalAvailableLink.sub(amountLinkToWithdraw);\n        totalAvailableUSDC = totalAvailableUSDC.sub(amountUSDCToWithdraw);\n\n        totalLpTokens = totalLpTokens.sub(amountLpTokens);\n\n        //userToAmountLpTokens[msg.sender] = userToAmountLpTokens[msg.sender].sub(amountLpTokens);\n        lpTokens.burn(amountLpTokens);\n\n\n        IERC20 Link = IERC20(addressLink);\n        IERC20 USDC = IERC20(addressUSDC);\n\n        require(Link.transfer(msg.sender, amountLinkToWithdraw), \"Link amount unavailable.\");\n        require(USDC.transfer(msg.sender, amountUSDCToWithdraw), \"USDC amount unavailable.\");\n\n    }\n\n\n\n//////////////////////////////////////////////////////////////////////////////////////////////////////////////////////////////////////////////////\n    // Link - USDC                      // 6 decimals\n    function getAmountPurchasedToken(uint256 amount, Tokens tokenForSale) internal view returns(uint256)\n    {\n        uint256 y = (tokenForSale == Tokens.Link) ? totalAvailableUSDC : totalAvailableLink;\n        uint256 x = (tokenForSale == Tokens.Link) ? totalAvailableLink : totalAvailableUSDC;\n\n        uint256 C = totalAvailableUSDC * totalAvailableLink;         // 24 decimals\n        uint256 amountPurchasedTokens = y.sub(C.div(x + amount)); // 6 or 18 decimals\n\n        return amountPurchasedTokens * (10 ** 6 - FEE) / 10 ** 6;\n    }\n\n\n\n    function getLpTokenPrice() public view returns(uint256, uint256) \n    {\n        return (totalAvailableLink.mul(10 ** 6).div(totalLpTokens), totalAvailableUSDC.mul(10 ** 6).div(totalLpTokens));\n    }\n\n\n}\n\n\n","sourcePath":"contracts/SimpleSwap.sol","type":"contract","deployment":{"address":"0x5fB96EBCf0190F6c2bDa4A383c88639e62C815a3","chainid":"42","blockHeight":32543834}}